{
  "_format": "hh-sol-artifact-1",
  "contractName": "VarityAppRegistry",
  "sourceName": "contracts/VarityAppRegistry.sol",
  "abi": [
    {
      "inputs": [],
      "stateMutability": "nonpayable",
      "type": "constructor"
    },
    {
      "inputs": [],
      "name": "AppAlreadyApproved",
      "type": "error"
    },
    {
      "inputs": [],
      "name": "AppNotApproved",
      "type": "error"
    },
    {
      "inputs": [],
      "name": "AppNotFound",
      "type": "error"
    },
    {
      "inputs": [],
      "name": "InvalidInput",
      "type": "error"
    },
    {
      "inputs": [],
      "name": "Unauthorized",
      "type": "error"
    },
    {
      "anonymous": false,
      "inputs": [
        {
          "indexed": true,
          "internalType": "address",
          "name": "admin",
          "type": "address"
        }
      ],
      "name": "AdminAdded",
      "type": "event"
    },
    {
      "anonymous": false,
      "inputs": [
        {
          "indexed": true,
          "internalType": "uint64",
          "name": "appId",
          "type": "uint64"
        }
      ],
      "name": "AppApproved",
      "type": "event"
    },
    {
      "anonymous": false,
      "inputs": [
        {
          "indexed": true,
          "internalType": "uint64",
          "name": "appId",
          "type": "uint64"
        }
      ],
      "name": "AppDeactivated",
      "type": "event"
    },
    {
      "anonymous": false,
      "inputs": [
        {
          "indexed": true,
          "internalType": "uint64",
          "name": "appId",
          "type": "uint64"
        }
      ],
      "name": "AppFeatured",
      "type": "event"
    },
    {
      "anonymous": false,
      "inputs": [
        {
          "indexed": true,
          "internalType": "uint64",
          "name": "appId",
          "type": "uint64"
        },
        {
          "indexed": false,
          "internalType": "string",
          "name": "name",
          "type": "string"
        },
        {
          "indexed": false,
          "internalType": "string",
          "name": "category",
          "type": "string"
        },
        {
          "indexed": false,
          "internalType": "uint64",
          "name": "chainId",
          "type": "uint64"
        }
      ],
      "name": "AppRegistered",
      "type": "event"
    },
    {
      "anonymous": false,
      "inputs": [
        {
          "indexed": true,
          "internalType": "uint64",
          "name": "appId",
          "type": "uint64"
        },
        {
          "indexed": false,
          "internalType": "string",
          "name": "reason",
          "type": "string"
        }
      ],
      "name": "AppRejected",
      "type": "event"
    },
    {
      "anonymous": false,
      "inputs": [
        {
          "indexed": true,
          "internalType": "uint64",
          "name": "appId",
          "type": "uint64"
        }
      ],
      "name": "AppUpdated",
      "type": "event"
    },
    {
      "inputs": [
        {
          "internalType": "address",
          "name": "admin",
          "type": "address"
        }
      ],
      "name": "addAdmin",
      "outputs": [],
      "stateMutability": "nonpayable",
      "type": "function"
    },
    {
      "inputs": [
        {
          "internalType": "address",
          "name": "",
          "type": "address"
        }
      ],
      "name": "admins",
      "outputs": [
        {
          "internalType": "bool",
          "name": "",
          "type": "bool"
        }
      ],
      "stateMutability": "view",
      "type": "function"
    },
    {
      "inputs": [
        {
          "internalType": "uint64",
          "name": "appId",
          "type": "uint64"
        }
      ],
      "name": "approveApp",
      "outputs": [],
      "stateMutability": "nonpayable",
      "type": "function"
    },
    {
      "inputs": [
        {
          "internalType": "uint64",
          "name": "appId",
          "type": "uint64"
        }
      ],
      "name": "deactivateApp",
      "outputs": [],
      "stateMutability": "nonpayable",
      "type": "function"
    },
    {
      "inputs": [
        {
          "internalType": "uint64",
          "name": "appId",
          "type": "uint64"
        }
      ],
      "name": "featureApp",
      "outputs": [],
      "stateMutability": "nonpayable",
      "type": "function"
    },
    {
      "inputs": [],
      "name": "featuredCount",
      "outputs": [
        {
          "internalType": "uint256",
          "name": "",
          "type": "uint256"
        }
      ],
      "stateMutability": "view",
      "type": "function"
    },
    {
      "inputs": [
        {
          "internalType": "uint64",
          "name": "maxResults",
          "type": "uint64"
        }
      ],
      "name": "getAllApps",
      "outputs": [
        {
          "internalType": "uint64[]",
          "name": "",
          "type": "uint64[]"
        }
      ],
      "stateMutability": "view",
      "type": "function"
    },
    {
      "inputs": [
        {
          "internalType": "uint64",
          "name": "appId",
          "type": "uint64"
        }
      ],
      "name": "getApp",
      "outputs": [
        {
          "internalType": "uint64",
          "name": "id",
          "type": "uint64"
        },
        {
          "internalType": "string",
          "name": "name",
          "type": "string"
        },
        {
          "internalType": "string",
          "name": "description",
          "type": "string"
        },
        {
          "internalType": "string",
          "name": "appUrl",
          "type": "string"
        },
        {
          "internalType": "string",
          "name": "logoUrl",
          "type": "string"
        },
        {
          "internalType": "string",
          "name": "category",
          "type": "string"
        },
        {
          "internalType": "uint64",
          "name": "chainId",
          "type": "uint64"
        },
        {
          "internalType": "address",
          "name": "developer",
          "type": "address"
        },
        {
          "internalType": "bool",
          "name": "isActive",
          "type": "bool"
        },
        {
          "internalType": "bool",
          "name": "isApproved",
          "type": "bool"
        },
        {
          "internalType": "uint64",
          "name": "createdAt",
          "type": "uint64"
        },
        {
          "internalType": "bool",
          "name": "builtWithVarity",
          "type": "bool"
        },
        {
          "internalType": "string",
          "name": "githubUrl",
          "type": "string"
        },
        {
          "internalType": "uint64",
          "name": "screenshotCount",
          "type": "uint64"
        }
      ],
      "stateMutability": "view",
      "type": "function"
    },
    {
      "inputs": [
        {
          "internalType": "uint64",
          "name": "appId",
          "type": "uint64"
        },
        {
          "internalType": "uint64",
          "name": "index",
          "type": "uint64"
        }
      ],
      "name": "getAppScreenshot",
      "outputs": [
        {
          "internalType": "string",
          "name": "",
          "type": "string"
        }
      ],
      "stateMutability": "view",
      "type": "function"
    },
    {
      "inputs": [
        {
          "internalType": "string",
          "name": "category",
          "type": "string"
        },
        {
          "internalType": "uint64",
          "name": "maxResults",
          "type": "uint64"
        }
      ],
      "name": "getAppsByCategory",
      "outputs": [
        {
          "internalType": "uint64[]",
          "name": "",
          "type": "uint64[]"
        }
      ],
      "stateMutability": "view",
      "type": "function"
    },
    {
      "inputs": [
        {
          "internalType": "uint64",
          "name": "chainId",
          "type": "uint64"
        },
        {
          "internalType": "uint64",
          "name": "maxResults",
          "type": "uint64"
        }
      ],
      "name": "getAppsByChain",
      "outputs": [
        {
          "internalType": "uint64[]",
          "name": "",
          "type": "uint64[]"
        }
      ],
      "stateMutability": "view",
      "type": "function"
    },
    {
      "inputs": [
        {
          "internalType": "address",
          "name": "developer",
          "type": "address"
        },
        {
          "internalType": "uint64",
          "name": "maxResults",
          "type": "uint64"
        }
      ],
      "name": "getAppsByDeveloper",
      "outputs": [
        {
          "internalType": "uint64[]",
          "name": "",
          "type": "uint64[]"
        }
      ],
      "stateMutability": "view",
      "type": "function"
    },
    {
      "inputs": [
        {
          "internalType": "uint64",
          "name": "maxResults",
          "type": "uint64"
        }
      ],
      "name": "getFeaturedApps",
      "outputs": [
        {
          "internalType": "uint64[]",
          "name": "",
          "type": "uint64[]"
        }
      ],
      "stateMutability": "view",
      "type": "function"
    },
    {
      "inputs": [],
      "name": "getOwner",
      "outputs": [
        {
          "internalType": "address",
          "name": "",
          "type": "address"
        }
      ],
      "stateMutability": "view",
      "type": "function"
    },
    {
      "inputs": [
        {
          "internalType": "uint64",
          "name": "maxResults",
          "type": "uint64"
        }
      ],
      "name": "getPendingApps",
      "outputs": [
        {
          "internalType": "uint64[]",
          "name": "",
          "type": "uint64[]"
        }
      ],
      "stateMutability": "view",
      "type": "function"
    },
    {
      "inputs": [],
      "name": "getTotalApps",
      "outputs": [
        {
          "internalType": "uint64",
          "name": "",
          "type": "uint64"
        }
      ],
      "stateMutability": "view",
      "type": "function"
    },
    {
      "inputs": [
        {
          "internalType": "address",
          "name": "addr",
          "type": "address"
        }
      ],
      "name": "isAdmin",
      "outputs": [
        {
          "internalType": "bool",
          "name": "",
          "type": "bool"
        }
      ],
      "stateMutability": "view",
      "type": "function"
    },
    {
      "inputs": [],
      "name": "nextAppId",
      "outputs": [
        {
          "internalType": "uint256",
          "name": "",
          "type": "uint256"
        }
      ],
      "stateMutability": "view",
      "type": "function"
    },
    {
      "inputs": [],
      "name": "owner",
      "outputs": [
        {
          "internalType": "address",
          "name": "",
          "type": "address"
        }
      ],
      "stateMutability": "view",
      "type": "function"
    },
    {
      "inputs": [],
      "name": "pendingCount",
      "outputs": [
        {
          "internalType": "uint256",
          "name": "",
          "type": "uint256"
        }
      ],
      "stateMutability": "view",
      "type": "function"
    },
    {
      "inputs": [
        {
          "internalType": "string",
          "name": "name",
          "type": "string"
        },
        {
          "internalType": "string",
          "name": "description",
          "type": "string"
        },
        {
          "internalType": "string",
          "name": "appUrl",
          "type": "string"
        },
        {
          "internalType": "string",
          "name": "logoUrl",
          "type": "string"
        },
        {
          "internalType": "string",
          "name": "category",
          "type": "string"
        },
        {
          "internalType": "uint64",
          "name": "chainId",
          "type": "uint64"
        },
        {
          "internalType": "bool",
          "name": "builtWithVarity",
          "type": "bool"
        },
        {
          "internalType": "string",
          "name": "githubUrl",
          "type": "string"
        },
        {
          "internalType": "string[]",
          "name": "screenshotUrls",
          "type": "string[]"
        }
      ],
      "name": "registerApp",
      "outputs": [
        {
          "internalType": "uint64",
          "name": "",
          "type": "uint64"
        }
      ],
      "stateMutability": "nonpayable",
      "type": "function"
    },
    {
      "inputs": [
        {
          "internalType": "uint64",
          "name": "appId",
          "type": "uint64"
        },
        {
          "internalType": "string",
          "name": "reason",
          "type": "string"
        }
      ],
      "name": "rejectApp",
      "outputs": [],
      "stateMutability": "nonpayable",
      "type": "function"
    },
    {
      "inputs": [
        {
          "internalType": "uint64",
          "name": "appId",
          "type": "uint64"
        },
        {
          "internalType": "string",
          "name": "description",
          "type": "string"
        },
        {
          "internalType": "string",
          "name": "appUrl",
          "type": "string"
        },
        {
          "internalType": "string[]",
          "name": "screenshotUrls",
          "type": "string[]"
        }
      ],
      "name": "updateApp",
      "outputs": [],
      "stateMutability": "nonpayable",
      "type": "function"
    }
  ],
  "bytecode": "0x6080806040523461004f573360018060a01b031960025416176002553360005260016020526040600020600160ff1982541617905560016000556000600355600060045561227e90816100558239f35b600080fdfe610160604052600436101561001357600080fd5b60003560e01c80631c26644d14611d1a57806324d7806c14611c6f5780632e44032114611cfc57806338226c2a14611cde5780633ec774e614611cae578063429b62e514611c6f578063640ae96814611a4a57806370480275146119db57806381a6549c14610ed9578063893d20e814610eb05780638da5cb5b14610eb0578063a8e5787b14610ddb578063aeb0edb7146108f7578063b21040ed1461074c578063b2e632991461068e578063b6b0d763146105fa578063bfe2f428146104fb578063c5394ac614610479578063ceeaec8d146103be578063e8a57a8b146102d5578063ea70b4af146102b7578063f5253fcf146101835763fc96c8a81461011a57600080fd5b3461017e57600036600319011261017e57600054801561017457600019810190811161015e576001600160401b03602091165b6001600160401b0360405191168152f35b634e487b7160e01b600052601160045260246000fd5b506020600061014d565b600080fd5b3461017e57604036600319011261017e5761019c611e1e565b6001600160401b03806101ad611e34565b166101b781611f7a565b916000916001948591826001600054915b610218575b50505050506101db82611f7a565b9260005b8381106101f857604051806101f48782611e4a565b0390f35b8083610205889385611fbb565b51166102118288611fbb565b52016101df565b818110806102ae575b156102a957806000526020600c815260ff9081604060002054169182610296575b5081610281575b5061025e575b61025890611fac565b846101c8565b9561027961025891878916610273828c611fbb565b52611fac565b96905061024f565b600a915052604060002054868516148a610249565b600d82526040600020541691508b610242565b6101cd565b50828710610221565b3461017e57600036600319011261017e576020600354604051908152f35b3461017e57602036600319011261017e576102ee611e1e565b33600052600160205260ff60406000205416156103ad576001600160401b03166000818152600b60205260409020546001600160a01b03161561039b5780600052600d60205260ff60406000205416156103895760045460005260146020528060406000205561035f600454611fac565b6004557f0d591b89befbdd3f545e87e970a8e33050a92ecfccfb625942222d33ed483412600080a2005b60405163f8e3ca2160e01b8152600490fd5b6040516344b3694960e01b8152600490fd5b6040516282b42960e81b8152600490fd5b3461017e57604036600319011261017e576103d7611e1e565b6103df611e34565b906001600160401b038091169182600052602091600b835260018060a01b03604060002054161561039b5783600052601183526040600020549116908110156104675761044c92600052601282526040600020906000528152610453604060002060405193848092612150565b0383611f42565b6101f4604051928284938452830190611ea5565b60405163b4fa3fb360e01b8152600490fd5b3461017e5760208060031936011261017e57610493611e1e565b6004546001600160401b0391821690808210156104f35750905b6104b682611f7a565b9260005b8381106104cf57604051806101f48782611e4a565b806001916000526014835283604060002054166104ec8288611fbb565b52016104ba565b9050906104ad565b3461017e57604036600319011261017e57610514611e8f565b6001600160401b0380610525611e34565b1661052f81611f7a565b6000805460019592949193919286926001600160a01b039182169284805b61059a575b50505050505061056182611f7a565b9260005b83811061057a57604051806101f48782611e4a565b8083610587889385611fbb565b51166105938288611fbb565b5201610565565b818110806105f1575b156105ec5780600052600b602052848460406000205416146105cf575b6105c990611fac565b8561054d565b966105e46105c991888a16610273828d611fbb565b9790506105c0565b610552565b508288106105a3565b3461017e57602036600319011261017e576001600160401b0361061b611e1e565b166000818152600b60205260409020546001600160a01b039081161561039b5781600052600b6020526040600020541633036103ad5780600052600c602052604060002060ff1981541690557f6a5796835b285a093e2cb5cffea5d7ac692b33835d407793f8a8088656c48b07600080a2005b3461017e57602036600319011261017e576106a7611e1e565b33600052600160205260ff60406000205416156103ad576001600160401b03166000818152600b60205260409020546001600160a01b03161561039b5780600052600d60205260ff6040600020541661073a5780600052600d6020526040600020600160ff198254161790557f6e4a191bec6b38555cfd779a63cc17d626f41bb4b38a1fa8d38c06021ba96c31600080a2005b604051633e67783160e01b8152600490fd5b3461017e57604036600319011261017e576001600160401b0360043581811161017e5761077d903690600401611ee5565b909180610788611e34565b169061079382611f7a565b926000926001958691826001600054915b6107f1575b5050505050506107b882611f7a565b9260005b8381106107d157604051806101f48782611e4a565b80836107de889385611fbb565b51166107ea8288611fbb565b52016107bc565b818110806108ee575b156108e957806000526020600c815260ff806040600020541690816108d6575b50610830575b5061082a90611fac565b846107a4565b94506009855261084d610854604060002060405192838092612150565b0382611f42565b8581519101208787116108c057604051610877601f8901601f1916880182611f42565b87815286810190368988011161017e5760008d988a8985378a83010152519020146108a3575b8a610820565b966108b861082a91888a16610273828d611fbb565b97905061089d565b634e487b7160e01b600052604160045260246000fd5b9050600d8252604060002054168c61081a565b6107a9565b508288106107fa565b3461017e57608036600319011261017e57610910611e1e565b6024356001600160401b03811161017e5761092f903690600401611ee5565b906044356001600160401b03811161017e5761094f903690600401611ee5565b6064356001600160401b03811161017e5761096e903690600401611f12565b9390946001600160401b038716600052600b60205260018060a01b0380604060002054161561039b576001600160401b038816600052600b6020526040600020541633036103ad5780158015610dd0575b6104675782156104675760058511610467576001600160401b03871660005260066020526040600020916001600160401b0382116108c0578190610a038454612116565b601f8111610d80575b50600090601f8311600114610d1557600092610d0a575b50508160011b916000199060031b1c19161790555b6001600160401b03851660005260076020526040600020916001600160401b0382116108c0578190610a6a8454612116565b601f8111610cb7575b50600090601f8311600114610c4a57600092610c3f575b50508160011b916000199060031b1c191617905591905b6001600160401b0382166000526011602052826040600020556000925b808410610af6576001600160401b0383167fa113758a38cc8858bb6393df2538bbd2487c8ca675cc8ad11dda5de9b183f66b600080a2005b610b018482846121e6565b6001600160401b03859692961660005260126020526040600020826000526020526040600020906001600160401b0381116108c057610b408254612116565b601f8111610bf7575b506000601f8211600114610b8f578190600195969798600092610b84575b5050600019600383901b1c191690841b1790555b01929190610abe565b013590508880610b67565b601f198216978360005260206000209160005b8a8110610bdf57508360019798999a10610bc5575b505050831b83019055610b7b565b0135600019600384901b60f8161c19169055878080610bb7565b90926020600181928686013581550194019101610ba2565b826000526020600020601f830160051c81019160208410610c35575b601f0160051c01905b818110610c295750610b49565b60008155600101610c1c565b9091508190610c13565b013590508680610a8a565b909150601f198316918460005260206000209260005b818110610c9f5750908460019594939210610c85575b505050811b0190559190610aa1565b0135600019600384901b60f8161c19169055868080610c76565b91936020600181928787013581550195019201610c60565b909150836000526020600020601f840160051c81019160208510610d00575b90601f859493920160051c01905b818110610cf15750610a73565b60008155849350600101610ce4565b9091508190610cd6565b013590508880610a23565b909150601f198316918460005260206000209260005b818110610d685750908460019594939210610d4e575b505050811b019055610a38565b0135600019600384901b60f8161c19169055888080610d41565b91936020600181928787013581550195019201610d2b565b909150836000526020600020601f840160051c810160208510610dc9575b90849392915b601f830160051c82018110610dba575050610a0c565b60008155859450600101610da4565b5080610d9e565b506103e881116109bf565b3461017e57604036600319011261017e57610df4611e1e565b6001600160401b0360243581811161017e57610e14903690600401611ee5565b9091336000526020936001855260ff60406000205416156103ad57166000818152600b855260409020549093906001600160a01b03161561039b57610eab7f7fa2b945164b7be0a66a167be5d4fc75a5b746418ab210a82985e04f0461b19a9385600052600c8352604060002060ff1990818154169055600d84526040600020908154169055604051938385948552840191612227565b0390a2005b3461017e57600036600319011261017e576002546040516001600160a01b039091168152602090f35b3461017e5761012036600319011261017e576004356001600160401b03811161017e57610f0a903690600401611ee5565b60c05260e0526024356001600160401b03811161017e57610f2f903690600401611ee5565b906044356001600160401b03811161017e57610f4f903690600401611ee5565b906064356001600160401b03811161017e57610f6f903690600401611ee5565b6084356001600160401b03811161017e57610f8e903690600401611ee5565b610100526101205260a43560a0526001600160401b0360a0511660a0510361017e5760c43592831515840361017e5760e4356001600160401b03811161017e57610fdc903690600401611ee5565b959096610104356001600160401b03811161017e57610fff903690600401611f12565b906080529860c0511580156119cf575b61046757801580156119c4575b6104675782156104675760058a11610467576000546101405261104161014051611fac565b60005561014051600052600560205260406000206001600160401b0360c051116108c05761106f8154612116565b601f811161197c575b506000601f60c0511160011461190a5760009060c0516118fd575b5060c05160011b9060001960c05160031b1c19161790555b6101405160005260066020526040600020916001600160401b0382116108c05781906110d78454612116565b601f81116118ad575b50600090601f83116001146118455760009261183a575b50508160011b916000199060031b1c19161790555b6101405160005260076020526040600020916001600160401b0382116108c05781906111388454612116565b601f81116117ea575b50600090601f831160011461178257600092611777575b50508160011b916000199060031b1c19161790555b6101405160005260086020526040600020916001600160401b0382116108c05781906111998454612116565b601f8111611727575b50600090601f83116001146116bf576000926116b4575b50508160011b916000199060031b1c19161790555b61014051600052600960205260406000206001600160401b0361010051116108c0576111fa8154612116565b601f811161166a575b506000601f61010051116001146115f257600090610100516115e4575b506101005160011b906000196101005160031b1c19161790555b61014051600052600a6020526001600160401b0360a05116604060002055600b6020526040600020336bffffffffffffffffffffffff60a01b825416179055600c60205260406000209060ff1991600183825416179055600d6020526040600020828154169055600e60205242604060002055600f60205260ff6040600020928354169115151617905560106020526040600020916001600160401b0382116108c05781906112e98454612116565b601f8111611594575b50600090601f831160011461152c57600092611521575b50508160011b916000199060031b1c19161790555b6101405160005260116020528060406000205560005b8181106113dc5760035460005260136020526101405160406000205561135b600354611fac565b60035560206001600160401b036101405116807f07f07ba959ed7a07c28880482b8be10163e68b45d2b1e6847ec4b0f51468013860405160608152806113c06113ac6060830160c05160e051612227565b828103888401526101005161012051612227565b6001600160401b0360a0511660408301520390a2604051908152f35b6113e981836080516121e6565b6101405160005260126020526040600020836000526020526040600020916001600160401b0382116108c05761141f8354612116565b601f81116114d9575b50600090601f831160011461146b5760019493929160009183611460575b5050600019600383901b1c191690841b1790555b01611334565b013590508680611446565b8360005260206000209160005b601f19851681106114c157509183916001969594938794601f198116106114a7575b505050811b01905561145a565b0135600019600384901b60f8161c1916905586808061149a565b90926020600181928686013581550194019101611478565b836000526020600020601f840160051c81019160208510611517575b601f0160051c01905b81811061150b5750611428565b600081556001016114fe565b90915081906114f5565b013590508480611309565b600085815260208120909450915b601f198416851061157c576001945083601f19811610611562575b505050811b01905561131e565b0135600019600384901b60f8161c19169055848080611555565b8181013583556020948501946001909301920161153a565b909150836000526020600020601f840160051c8101602085106115dd575b90849392915b601f830160051c820181106115ce5750506112f2565b600081558594506001016115b8565b50806115b2565b905061012051013586611220565b8160005260206000209060005b61010051601f1916811061164f575061010051601f1981161061162f575b5050600161010051811b01905561123a565b60001960f86101005160031b161c1990610120510135169055858061161d565b909160206001819285610120510135815501930191016115ff565b816000526020600020601f610100510160051c8101602061010051106116ad575b601f830160051c820181106116a1575050611203565b6000815560010161168b565b508061168b565b0135905087806111b9565b600085815260208120909450915b601f198416851061170f576001945083601f198116106116f5575b505050811b0190556111ce565b0135600019600384901b60f8161c191690558780806116e8565b818101358355602094850194600190930192016116cd565b909150836000526020600020601f840160051c810160208510611770575b90849392915b601f830160051c820181106117615750506111a2565b6000815585945060010161174b565b5080611745565b013590508980611158565b600085815260208120909450915b601f19841685106117d2576001945083601f198116106117b8575b505050811b01905561116d565b0135600019600384901b60f8161c191690558980806117ab565b81810135835560209485019460019093019201611790565b909150836000526020600020601f840160051c810160208510611833575b90849392915b601f830160051c82018110611824575050611141565b6000815585945060010161180e565b5080611808565b013590508b806110f7565b600085815260208120909450915b601f1984168510611895576001945083601f1981161061187b575b505050811b01905561110c565b0135600019600384901b60f8161c191690558b808061186e565b81810135835560209485019460019093019201611853565b909150836000526020600020601f840160051c8101602085106118f6575b90849392915b601f830160051c820181106118e75750506110e0565b600081558594506001016118d1565b50806118cb565b905060e05101358c611093565b8160005260206000209060005b60c051601f19168110611962575060c051601f19811610611944575b5050600160c051811b0190556110ab565b60001960f860c05160031b161c199060e05101351690558b80611933565b90916020600181928560e051013581550193019101611917565b816000526020600020601f60c0510160051c8101602060c051106119bd575b601f830160051c820181106119b1575050611078565b6000815560010161199b565b508061199b565b506103e8811161101c565b50606460c0511161100f565b3461017e57602036600319011261017e576119f4611e8f565b6002546001600160a01b039190821633036103ad57168060005260016020526040600020600160ff198254161790557f44d6d25963f097ad14f29f06854a01f575648a1ef82f30e562ccd3889717e339600080a2005b3461017e57602036600319011261017e576001600160401b0380611a6c611e1e565b166000818152600b60205260409020546001600160a01b039081161561039b578160005260056020526040600020926006602052604060002091600760205260406000206008602052604060002060096020526040600020600a602052846040600020541693600b60205260406000205416600c60205260406000205460ff1690600d60205260406000205460ff1692600e602052876040600020541694600f60205260406000205460ff169660106020526040600020996011602052604060002054169a604051809e611b41828092612150565b03611b4b91611f42565b604051611b59818093612150565b03611b649082611f42565b604051611b72818094612150565b03611b7d9083611f42565b604051611b8b818095612150565b03611b969084611f42565b604051611ba4818096612150565b03611baf9085611f42565b604051611bbd81809d612150565b03611bc8908c611f42565b6040519d8e9d8e6101c091815281602082015201611be591611ea5565b8d810360408f0152611bf691611ea5565b8c810360608e0152611c0791611ea5565b8b810360808d0152611c1891611ea5565b8a810360a08c0152611c2991611ea5565b9560c08a015260e0890152151561010088015215156101208701526101408601521515610160850152838103610180850152611c6491611ea5565b906101a08301520390f35b3461017e57602036600319011261017e576001600160a01b03611c90611e8f565b166000526001602052602060ff604060002054166040519015158152f35b3461017e57602036600319011261017e576101f4611cd2611ccd611e1e565b611fe5565b60405191829182611e4a565b3461017e57600036600319011261017e576020600054604051908152f35b3461017e57600036600319011261017e576020600454604051908152f35b3461017e5760208060031936011261017e576001600160401b0380611d3d611e1e565b16611d4781611f7a565b916000916001948591826001600054915b611da4575b5050505050611d6b82611f7a565b9260005b838110611d8457604051806101f48782611e4a565b8083611d91889385611fbb565b5116611d9d8288611fbb565b5201611d6f565b81811080611e15575b15611e105780600052600c845260ff80604060002054169081611dfd575b50611de0575b611dda90611fac565b84611d58565b95611df5611dda91878916610273828c611fbb565b969050611dd1565b9050600d8552604060002054168a611dcb565b611d5d565b50828710611dad565b600435906001600160401b038216820361017e57565b602435906001600160401b038216820361017e57565b602090602060408183019282815285518094520193019160005b828110611e72575050505090565b83516001600160401b031685529381019392810192600101611e64565b600435906001600160a01b038216820361017e57565b919082519283825260005b848110611ed1575050826000602080949584010152601f8019910116010190565b602081830181015184830182015201611eb0565b9181601f8401121561017e578235916001600160401b03831161017e576020838186019501011161017e57565b9181601f8401121561017e578235916001600160401b03831161017e576020808501948460051b01011161017e57565b90601f801991011681019081106001600160401b038211176108c057604052565b6001600160401b0381116108c05760051b60200190565b90611f8482611f63565b611f916040519182611f42565b8281528092611fa2601f1991611f63565b0190602036910137565b600019811461015e5760010190565b8051821015611fcf5760209160051b010190565b634e487b7160e01b600052603260045260246000fd5b90600033815260016020600160205260ff9460409160ff604086205416156103ad5760035492846001600160401b0380941685811060001461210e57925b61202c84611f7a565b99889687845b612084575b50505050505082106120495750505050565b61205282611f7a565b935b8281106120645750929450505050565b808261207186938a611fbb565b511661207d8288611fbb565b5201612054565b81811080612105575b1561210057808b52601384528c868c2054808d52600d86528c85898181842054161592836120ef575b5050506120cf575b50506120c990611fac565b84612032565b996120e591610273828c6120c9969e1692611fbb565b9890508c386120be565b600c8a52205416905085898f6120b6565b612037565b5086891061208d565b508492612023565b90600182811c92168015612146575b602083101461213057565b634e487b7160e01b600052602260045260246000fd5b91607f1691612125565b80546000939261215f82612116565b918282526020936001916001811690816000146121c75750600114612186575b5050505050565b90939495506000929192528360002092846000945b8386106121b35750505050010190388080808061217f565b80548587018301529401938590820161219b565b60ff19168685015250505090151560051b01019150388080808061217f565b9190811015611fcf5760051b81013590601e198136030182121561017e5701908135916001600160401b03831161017e57602001823603811361017e579190565b908060209392818452848401376000828201840152601f01601f191601019056fea26469706673582212203314794701b4247849fbc4a252cce1ffe7bb5ed6b8f9203624d5bfba2488c28764736f6c63430008180033",
  "linkReferences": {},
  "deployedLinkReferences": {}
}