{"contracts/VarityAppRegistry.sol":{"VarityAppRegistry":{"abi":[{"inputs":[],"stateMutability":"nonpayable","type":"constructor"},{"inputs":[],"name":"AppAlreadyApproved","type":"error"},{"inputs":[],"name":"AppNotApproved","type":"error"},{"inputs":[],"name":"AppNotFound","type":"error"},{"inputs":[],"name":"InvalidInput","type":"error"},{"inputs":[],"name":"Unauthorized","type":"error"},{"anonymous":false,"inputs":[{"indexed":true,"internalType":"address","name":"admin","type":"address"}],"name":"AdminAdded","type":"event"},{"anonymous":false,"inputs":[{"indexed":true,"internalType":"uint64","name":"appId","type":"uint64"}],"name":"AppApproved","type":"event"},{"anonymous":false,"inputs":[{"indexed":true,"internalType":"uint64","name":"appId","type":"uint64"}],"name":"AppDeactivated","type":"event"},{"anonymous":false,"inputs":[{"indexed":true,"internalType":"uint64","name":"appId","type":"uint64"}],"name":"AppFeatured","type":"event"},{"anonymous":false,"inputs":[{"indexed":true,"internalType":"uint64","name":"appId","type":"uint64"},{"indexed":false,"internalType":"string","name":"name","type":"string"},{"indexed":false,"internalType":"string","name":"category","type":"string"},{"indexed":false,"internalType":"uint64","name":"chainId","type":"uint64"}],"name":"AppRegistered","type":"event"},{"anonymous":false,"inputs":[{"indexed":true,"internalType":"uint64","name":"appId","type":"uint64"},{"indexed":false,"internalType":"string","name":"reason","type":"string"}],"name":"AppRejected","type":"event"},{"anonymous":false,"inputs":[{"indexed":true,"internalType":"uint64","name":"appId","type":"uint64"}],"name":"AppUpdated","type":"event"},{"inputs":[{"internalType":"address","name":"admin","type":"address"}],"name":"addAdmin","outputs":[],"stateMutability":"nonpayable","type":"function"},{"inputs":[{"internalType":"address","name":"","type":"address"}],"name":"admins","outputs":[{"internalType":"bool","name":"","type":"bool"}],"stateMutability":"view","type":"function"},{"inputs":[{"internalType":"uint64","name":"appId","type":"uint64"}],"name":"approveApp","outputs":[],"stateMutability":"nonpayable","type":"function"},{"inputs":[{"internalType":"uint64","name":"appId","type":"uint64"}],"name":"deactivateApp","outputs":[],"stateMutability":"nonpayable","type":"function"},{"inputs":[{"internalType":"uint64","name":"appId","type":"uint64"}],"name":"featureApp","outputs":[],"stateMutability":"nonpayable","type":"function"},{"inputs":[],"name":"featuredCount","outputs":[{"internalType":"uint256","name":"","type":"uint256"}],"stateMutability":"view","type":"function"},{"inputs":[{"internalType":"uint64","name":"maxResults","type":"uint64"}],"name":"getAllApps","outputs":[{"internalType":"uint64[]","name":"","type":"uint64[]"}],"stateMutability":"view","type":"function"},{"inputs":[{"internalType":"uint64","name":"appId","type":"uint64"}],"name":"getApp","outputs":[{"internalType":"uint64","name":"id","type":"uint64"},{"internalType":"string","name":"name","type":"string"},{"internalType":"string","name":"description","type":"string"},{"internalType":"string","name":"appUrl","type":"string"},{"internalType":"string","name":"logoUrl","type":"string"},{"internalType":"string","name":"category","type":"string"},{"internalType":"uint64","name":"chainId","type":"uint64"},{"internalType":"address","name":"developer","type":"address"},{"internalType":"bool","name":"isActive","type":"bool"},{"internalType":"bool","name":"isApproved","type":"bool"},{"internalType":"uint64","name":"createdAt","type":"uint64"},{"internalType":"bool","name":"builtWithVarity","type":"bool"},{"internalType":"string","name":"githubUrl","type":"string"},{"internalType":"uint64","name":"screenshotCount","type":"uint64"}],"stateMutability":"view","type":"function"},{"inputs":[{"internalType":"uint64","name":"appId","type":"uint64"},{"internalType":"uint64","name":"index","type":"uint64"}],"name":"getAppScreenshot","outputs":[{"internalType":"string","name":"","type":"string"}],"stateMutability":"view","type":"function"},{"inputs":[{"internalType":"string","name":"category","type":"string"},{"internalType":"uint64","name":"maxResults","type":"uint64"}],"name":"getAppsByCategory","outputs":[{"internalType":"uint64[]","name":"","type":"uint64[]"}],"stateMutability":"view","type":"function"},{"inputs":[{"internalType":"uint64","name":"chainId","type":"uint64"},{"internalType":"uint64","name":"maxResults","type":"uint64"}],"name":"getAppsByChain","outputs":[{"internalType":"uint64[]","name":"","type":"uint64[]"}],"stateMutability":"view","type":"function"},{"inputs":[{"internalType":"address","name":"developer","type":"address"},{"internalType":"uint64","name":"maxResults","type":"uint64"}],"name":"getAppsByDeveloper","outputs":[{"internalType":"uint64[]","name":"","type":"uint64[]"}],"stateMutability":"view","type":"function"},{"inputs":[{"internalType":"uint64","name":"maxResults","type":"uint64"}],"name":"getFeaturedApps","outputs":[{"internalType":"uint64[]","name":"","type":"uint64[]"}],"stateMutability":"view","type":"function"},{"inputs":[],"name":"getOwner","outputs":[{"internalType":"address","name":"","type":"address"}],"stateMutability":"view","type":"function"},{"inputs":[{"internalType":"uint64","name":"maxResults","type":"uint64"}],"name":"getPendingApps","outputs":[{"internalType":"uint64[]","name":"","type":"uint64[]"}],"stateMutability":"view","type":"function"},{"inputs":[],"name":"getTotalApps","outputs":[{"internalType":"uint64","name":"","type":"uint64"}],"stateMutability":"view","type":"function"},{"inputs":[{"internalType":"address","name":"addr","type":"address"}],"name":"isAdmin","outputs":[{"internalType":"bool","name":"","type":"bool"}],"stateMutability":"view","type":"function"},{"inputs":[],"name":"nextAppId","outputs":[{"internalType":"uint256","name":"","type":"uint256"}],"stateMutability":"view","type":"function"},{"inputs":[],"name":"owner","outputs":[{"internalType":"address","name":"","type":"address"}],"stateMutability":"view","type":"function"},{"inputs":[],"name":"pendingCount","outputs":[{"internalType":"uint256","name":"","type":"uint256"}],"stateMutability":"view","type":"function"},{"inputs":[{"internalType":"string","name":"name","type":"string"},{"internalType":"string","name":"description","type":"string"},{"internalType":"string","name":"appUrl","type":"string"},{"internalType":"string","name":"logoUrl","type":"string"},{"internalType":"string","name":"category","type":"string"},{"internalType":"uint64","name":"chainId","type":"uint64"},{"internalType":"bool","name":"builtWithVarity","type":"bool"},{"internalType":"string","name":"githubUrl","type":"string"},{"internalType":"string[]","name":"screenshotUrls","type":"string[]"}],"name":"registerApp","outputs":[{"internalType":"uint64","name":"","type":"uint64"}],"stateMutability":"nonpayable","type":"function"},{"inputs":[{"internalType":"uint64","name":"appId","type":"uint64"},{"internalType":"string","name":"reason","type":"string"}],"name":"rejectApp","outputs":[],"stateMutability":"nonpayable","type":"function"},{"inputs":[{"internalType":"uint64","name":"appId","type":"uint64"},{"internalType":"string","name":"description","type":"string"},{"internalType":"string","name":"appUrl","type":"string"},{"internalType":"string[]","name":"screenshotUrls","type":"string[]"}],"name":"updateApp","outputs":[],"stateMutability":"nonpayable","type":"function"}],"evm":{"bytecode":{"linkReferences":{},"object":"6080806040523461004f573360018060a01b031960025416176002553360005260016020526040600020600160ff1982541617905560016000556000600355600060045561227e90816100558239f35b600080fdfe610160604052600436101561001357600080fd5b60003560e01c80631c26644d14611d1a57806324d7806c14611c6f5780632e44032114611cfc57806338226c2a14611cde5780633ec774e614611cae578063429b62e514611c6f578063640ae96814611a4a57806370480275146119db57806381a6549c14610ed9578063893d20e814610eb05780638da5cb5b14610eb0578063a8e5787b14610ddb578063aeb0edb7146108f7578063b21040ed1461074c578063b2e632991461068e578063b6b0d763146105fa578063bfe2f428146104fb578063c5394ac614610479578063ceeaec8d146103be578063e8a57a8b146102d5578063ea70b4af146102b7578063f5253fcf146101835763fc96c8a81461011a57600080fd5b3461017e57600036600319011261017e57600054801561017457600019810190811161015e576001600160401b03602091165b6001600160401b0360405191168152f35b634e487b7160e01b600052601160045260246000fd5b506020600061014d565b600080fd5b3461017e57604036600319011261017e5761019c611e1e565b6001600160401b03806101ad611e34565b166101b781611f7a565b916000916001948591826001600054915b610218575b50505050506101db82611f7a565b9260005b8381106101f857604051806101f48782611e4a565b0390f35b8083610205889385611fbb565b51166102118288611fbb565b52016101df565b818110806102ae575b156102a957806000526020600c815260ff9081604060002054169182610296575b5081610281575b5061025e575b61025890611fac565b846101c8565b9561027961025891878916610273828c611fbb565b52611fac565b96905061024f565b600a915052604060002054868516148a610249565b600d82526040600020541691508b610242565b6101cd565b50828710610221565b3461017e57600036600319011261017e576020600354604051908152f35b3461017e57602036600319011261017e576102ee611e1e565b33600052600160205260ff60406000205416156103ad576001600160401b03166000818152600b60205260409020546001600160a01b03161561039b5780600052600d60205260ff60406000205416156103895760045460005260146020528060406000205561035f600454611fac565b6004557f0d591b89befbdd3f545e87e970a8e33050a92ecfccfb625942222d33ed483412600080a2005b60405163f8e3ca2160e01b8152600490fd5b6040516344b3694960e01b8152600490fd5b6040516282b42960e81b8152600490fd5b3461017e57604036600319011261017e576103d7611e1e565b6103df611e34565b906001600160401b038091169182600052602091600b835260018060a01b03604060002054161561039b5783600052601183526040600020549116908110156104675761044c92600052601282526040600020906000528152610453604060002060405193848092612150565b0383611f42565b6101f4604051928284938452830190611ea5565b60405163b4fa3fb360e01b8152600490fd5b3461017e5760208060031936011261017e57610493611e1e565b6004546001600160401b0391821690808210156104f35750905b6104b682611f7a565b9260005b8381106104cf57604051806101f48782611e4a565b806001916000526014835283604060002054166104ec8288611fbb565b52016104ba565b9050906104ad565b3461017e57604036600319011261017e57610514611e8f565b6001600160401b0380610525611e34565b1661052f81611f7a565b6000805460019592949193919286926001600160a01b039182169284805b61059a575b50505050505061056182611f7a565b9260005b83811061057a57604051806101f48782611e4a565b8083610587889385611fbb565b51166105938288611fbb565b5201610565565b818110806105f1575b156105ec5780600052600b602052848460406000205416146105cf575b6105c990611fac565b8561054d565b966105e46105c991888a16610273828d611fbb565b9790506105c0565b610552565b508288106105a3565b3461017e57602036600319011261017e576001600160401b0361061b611e1e565b166000818152600b60205260409020546001600160a01b039081161561039b5781600052600b6020526040600020541633036103ad5780600052600c602052604060002060ff1981541690557f6a5796835b285a093e2cb5cffea5d7ac692b33835d407793f8a8088656c48b07600080a2005b3461017e57602036600319011261017e576106a7611e1e565b33600052600160205260ff60406000205416156103ad576001600160401b03166000818152600b60205260409020546001600160a01b03161561039b5780600052600d60205260ff6040600020541661073a5780600052600d6020526040600020600160ff198254161790557f6e4a191bec6b38555cfd779a63cc17d626f41bb4b38a1fa8d38c06021ba96c31600080a2005b604051633e67783160e01b8152600490fd5b3461017e57604036600319011261017e576001600160401b0360043581811161017e5761077d903690600401611ee5565b909180610788611e34565b169061079382611f7a565b926000926001958691826001600054915b6107f1575b5050505050506107b882611f7a565b9260005b8381106107d157604051806101f48782611e4a565b80836107de889385611fbb565b51166107ea8288611fbb565b52016107bc565b818110806108ee575b156108e957806000526020600c815260ff806040600020541690816108d6575b50610830575b5061082a90611fac565b846107a4565b94506009855261084d610854604060002060405192838092612150565b0382611f42565b8581519101208787116108c057604051610877601f8901601f1916880182611f42565b87815286810190368988011161017e5760008d988a8985378a83010152519020146108a3575b8a610820565b966108b861082a91888a16610273828d611fbb565b97905061089d565b634e487b7160e01b600052604160045260246000fd5b9050600d8252604060002054168c61081a565b6107a9565b508288106107fa565b3461017e57608036600319011261017e57610910611e1e565b6024356001600160401b03811161017e5761092f903690600401611ee5565b906044356001600160401b03811161017e5761094f903690600401611ee5565b6064356001600160401b03811161017e5761096e903690600401611f12565b9390946001600160401b038716600052600b60205260018060a01b0380604060002054161561039b576001600160401b038816600052600b6020526040600020541633036103ad5780158015610dd0575b6104675782156104675760058511610467576001600160401b03871660005260066020526040600020916001600160401b0382116108c0578190610a038454612116565b601f8111610d80575b50600090601f8311600114610d1557600092610d0a575b50508160011b916000199060031b1c19161790555b6001600160401b03851660005260076020526040600020916001600160401b0382116108c0578190610a6a8454612116565b601f8111610cb7575b50600090601f8311600114610c4a57600092610c3f575b50508160011b916000199060031b1c191617905591905b6001600160401b0382166000526011602052826040600020556000925b808410610af6576001600160401b0383167fa113758a38cc8858bb6393df2538bbd2487c8ca675cc8ad11dda5de9b183f66b600080a2005b610b018482846121e6565b6001600160401b03859692961660005260126020526040600020826000526020526040600020906001600160401b0381116108c057610b408254612116565b601f8111610bf7575b506000601f8211600114610b8f578190600195969798600092610b84575b5050600019600383901b1c191690841b1790555b01929190610abe565b013590508880610b67565b601f198216978360005260206000209160005b8a8110610bdf57508360019798999a10610bc5575b505050831b83019055610b7b565b0135600019600384901b60f8161c19169055878080610bb7565b90926020600181928686013581550194019101610ba2565b826000526020600020601f830160051c81019160208410610c35575b601f0160051c01905b818110610c295750610b49565b60008155600101610c1c565b9091508190610c13565b013590508680610a8a565b909150601f198316918460005260206000209260005b818110610c9f5750908460019594939210610c85575b505050811b0190559190610aa1565b0135600019600384901b60f8161c19169055868080610c76565b91936020600181928787013581550195019201610c60565b909150836000526020600020601f840160051c81019160208510610d00575b90601f859493920160051c01905b818110610cf15750610a73565b60008155849350600101610ce4565b9091508190610cd6565b013590508880610a23565b909150601f198316918460005260206000209260005b818110610d685750908460019594939210610d4e575b505050811b019055610a38565b0135600019600384901b60f8161c19169055888080610d41565b91936020600181928787013581550195019201610d2b565b909150836000526020600020601f840160051c810160208510610dc9575b90849392915b601f830160051c82018110610dba575050610a0c565b60008155859450600101610da4565b5080610d9e565b506103e881116109bf565b3461017e57604036600319011261017e57610df4611e1e565b6001600160401b0360243581811161017e57610e14903690600401611ee5565b9091336000526020936001855260ff60406000205416156103ad57166000818152600b855260409020549093906001600160a01b03161561039b57610eab7f7fa2b945164b7be0a66a167be5d4fc75a5b746418ab210a82985e04f0461b19a9385600052600c8352604060002060ff1990818154169055600d84526040600020908154169055604051938385948552840191612227565b0390a2005b3461017e57600036600319011261017e576002546040516001600160a01b039091168152602090f35b3461017e5761012036600319011261017e576004356001600160401b03811161017e57610f0a903690600401611ee5565b60c05260e0526024356001600160401b03811161017e57610f2f903690600401611ee5565b906044356001600160401b03811161017e57610f4f903690600401611ee5565b906064356001600160401b03811161017e57610f6f903690600401611ee5565b6084356001600160401b03811161017e57610f8e903690600401611ee5565b610100526101205260a43560a0526001600160401b0360a0511660a0510361017e5760c43592831515840361017e5760e4356001600160401b03811161017e57610fdc903690600401611ee5565b959096610104356001600160401b03811161017e57610fff903690600401611f12565b906080529860c0511580156119cf575b61046757801580156119c4575b6104675782156104675760058a11610467576000546101405261104161014051611fac565b60005561014051600052600560205260406000206001600160401b0360c051116108c05761106f8154612116565b601f811161197c575b506000601f60c0511160011461190a5760009060c0516118fd575b5060c05160011b9060001960c05160031b1c19161790555b6101405160005260066020526040600020916001600160401b0382116108c05781906110d78454612116565b601f81116118ad575b50600090601f83116001146118455760009261183a575b50508160011b916000199060031b1c19161790555b6101405160005260076020526040600020916001600160401b0382116108c05781906111388454612116565b601f81116117ea575b50600090601f831160011461178257600092611777575b50508160011b916000199060031b1c19161790555b6101405160005260086020526040600020916001600160401b0382116108c05781906111998454612116565b601f8111611727575b50600090601f83116001146116bf576000926116b4575b50508160011b916000199060031b1c19161790555b61014051600052600960205260406000206001600160401b0361010051116108c0576111fa8154612116565b601f811161166a575b506000601f61010051116001146115f257600090610100516115e4575b506101005160011b906000196101005160031b1c19161790555b61014051600052600a6020526001600160401b0360a05116604060002055600b6020526040600020336bffffffffffffffffffffffff60a01b825416179055600c60205260406000209060ff1991600183825416179055600d6020526040600020828154169055600e60205242604060002055600f60205260ff6040600020928354169115151617905560106020526040600020916001600160401b0382116108c05781906112e98454612116565b601f8111611594575b50600090601f831160011461152c57600092611521575b50508160011b916000199060031b1c19161790555b6101405160005260116020528060406000205560005b8181106113dc5760035460005260136020526101405160406000205561135b600354611fac565b60035560206001600160401b036101405116807f07f07ba959ed7a07c28880482b8be10163e68b45d2b1e6847ec4b0f51468013860405160608152806113c06113ac6060830160c05160e051612227565b828103888401526101005161012051612227565b6001600160401b0360a0511660408301520390a2604051908152f35b6113e981836080516121e6565b6101405160005260126020526040600020836000526020526040600020916001600160401b0382116108c05761141f8354612116565b601f81116114d9575b50600090601f831160011461146b5760019493929160009183611460575b5050600019600383901b1c191690841b1790555b01611334565b013590508680611446565b8360005260206000209160005b601f19851681106114c157509183916001969594938794601f198116106114a7575b505050811b01905561145a565b0135600019600384901b60f8161c1916905586808061149a565b90926020600181928686013581550194019101611478565b836000526020600020601f840160051c81019160208510611517575b601f0160051c01905b81811061150b5750611428565b600081556001016114fe565b90915081906114f5565b013590508480611309565b600085815260208120909450915b601f198416851061157c576001945083601f19811610611562575b505050811b01905561131e565b0135600019600384901b60f8161c19169055848080611555565b8181013583556020948501946001909301920161153a565b909150836000526020600020601f840160051c8101602085106115dd575b90849392915b601f830160051c820181106115ce5750506112f2565b600081558594506001016115b8565b50806115b2565b905061012051013586611220565b8160005260206000209060005b61010051601f1916811061164f575061010051601f1981161061162f575b5050600161010051811b01905561123a565b60001960f86101005160031b161c1990610120510135169055858061161d565b909160206001819285610120510135815501930191016115ff565b816000526020600020601f610100510160051c8101602061010051106116ad575b601f830160051c820181106116a1575050611203565b6000815560010161168b565b508061168b565b0135905087806111b9565b600085815260208120909450915b601f198416851061170f576001945083601f198116106116f5575b505050811b0190556111ce565b0135600019600384901b60f8161c191690558780806116e8565b818101358355602094850194600190930192016116cd565b909150836000526020600020601f840160051c810160208510611770575b90849392915b601f830160051c820181106117615750506111a2565b6000815585945060010161174b565b5080611745565b013590508980611158565b600085815260208120909450915b601f19841685106117d2576001945083601f198116106117b8575b505050811b01905561116d565b0135600019600384901b60f8161c191690558980806117ab565b81810135835560209485019460019093019201611790565b909150836000526020600020601f840160051c810160208510611833575b90849392915b601f830160051c82018110611824575050611141565b6000815585945060010161180e565b5080611808565b013590508b806110f7565b600085815260208120909450915b601f1984168510611895576001945083601f1981161061187b575b505050811b01905561110c565b0135600019600384901b60f8161c191690558b808061186e565b81810135835560209485019460019093019201611853565b909150836000526020600020601f840160051c8101602085106118f6575b90849392915b601f830160051c820181106118e75750506110e0565b600081558594506001016118d1565b50806118cb565b905060e05101358c611093565b8160005260206000209060005b60c051601f19168110611962575060c051601f19811610611944575b5050600160c051811b0190556110ab565b60001960f860c05160031b161c199060e05101351690558b80611933565b90916020600181928560e051013581550193019101611917565b816000526020600020601f60c0510160051c8101602060c051106119bd575b601f830160051c820181106119b1575050611078565b6000815560010161199b565b508061199b565b506103e8811161101c565b50606460c0511161100f565b3461017e57602036600319011261017e576119f4611e8f565b6002546001600160a01b039190821633036103ad57168060005260016020526040600020600160ff198254161790557f44d6d25963f097ad14f29f06854a01f575648a1ef82f30e562ccd3889717e339600080a2005b3461017e57602036600319011261017e576001600160401b0380611a6c611e1e565b166000818152600b60205260409020546001600160a01b039081161561039b578160005260056020526040600020926006602052604060002091600760205260406000206008602052604060002060096020526040600020600a602052846040600020541693600b60205260406000205416600c60205260406000205460ff1690600d60205260406000205460ff1692600e602052876040600020541694600f60205260406000205460ff169660106020526040600020996011602052604060002054169a604051809e611b41828092612150565b03611b4b91611f42565b604051611b59818093612150565b03611b649082611f42565b604051611b72818094612150565b03611b7d9083611f42565b604051611b8b818095612150565b03611b969084611f42565b604051611ba4818096612150565b03611baf9085611f42565b604051611bbd81809d612150565b03611bc8908c611f42565b6040519d8e9d8e6101c091815281602082015201611be591611ea5565b8d810360408f0152611bf691611ea5565b8c810360608e0152611c0791611ea5565b8b810360808d0152611c1891611ea5565b8a810360a08c0152611c2991611ea5565b9560c08a015260e0890152151561010088015215156101208701526101408601521515610160850152838103610180850152611c6491611ea5565b906101a08301520390f35b3461017e57602036600319011261017e576001600160a01b03611c90611e8f565b166000526001602052602060ff604060002054166040519015158152f35b3461017e57602036600319011261017e576101f4611cd2611ccd611e1e565b611fe5565b60405191829182611e4a565b3461017e57600036600319011261017e576020600054604051908152f35b3461017e57600036600319011261017e576020600454604051908152f35b3461017e5760208060031936011261017e576001600160401b0380611d3d611e1e565b16611d4781611f7a565b916000916001948591826001600054915b611da4575b5050505050611d6b82611f7a565b9260005b838110611d8457604051806101f48782611e4a565b8083611d91889385611fbb565b5116611d9d8288611fbb565b5201611d6f565b81811080611e15575b15611e105780600052600c845260ff80604060002054169081611dfd575b50611de0575b611dda90611fac565b84611d58565b95611df5611dda91878916610273828c611fbb565b969050611dd1565b9050600d8552604060002054168a611dcb565b611d5d565b50828710611dad565b600435906001600160401b038216820361017e57565b602435906001600160401b038216820361017e57565b602090602060408183019282815285518094520193019160005b828110611e72575050505090565b83516001600160401b031685529381019392810192600101611e64565b600435906001600160a01b038216820361017e57565b919082519283825260005b848110611ed1575050826000602080949584010152601f8019910116010190565b602081830181015184830182015201611eb0565b9181601f8401121561017e578235916001600160401b03831161017e576020838186019501011161017e57565b9181601f8401121561017e578235916001600160401b03831161017e576020808501948460051b01011161017e57565b90601f801991011681019081106001600160401b038211176108c057604052565b6001600160401b0381116108c05760051b60200190565b90611f8482611f63565b611f916040519182611f42565b8281528092611fa2601f1991611f63565b0190602036910137565b600019811461015e5760010190565b8051821015611fcf5760209160051b010190565b634e487b7160e01b600052603260045260246000fd5b90600033815260016020600160205260ff9460409160ff604086205416156103ad5760035492846001600160401b0380941685811060001461210e57925b61202c84611f7a565b99889687845b612084575b50505050505082106120495750505050565b61205282611f7a565b935b8281106120645750929450505050565b808261207186938a611fbb565b511661207d8288611fbb565b5201612054565b81811080612105575b1561210057808b52601384528c868c2054808d52600d86528c85898181842054161592836120ef575b5050506120cf575b50506120c990611fac565b84612032565b996120e591610273828c6120c9969e1692611fbb565b9890508c386120be565b600c8a52205416905085898f6120b6565b612037565b5086891061208d565b508492612023565b90600182811c92168015612146575b602083101461213057565b634e487b7160e01b600052602260045260246000fd5b91607f1691612125565b80546000939261215f82612116565b918282526020936001916001811690816000146121c75750600114612186575b5050505050565b90939495506000929192528360002092846000945b8386106121b35750505050010190388080808061217f565b80548587018301529401938590820161219b565b60ff19168685015250505090151560051b01019150388080808061217f565b9190811015611fcf5760051b81013590601e198136030182121561017e5701908135916001600160401b03831161017e57602001823603811361017e579190565b908060209392818452848401376000828201840152601f01601f191601019056fea26469706673582212203314794701b4247849fbc4a252cce1ffe7bb5ed6b8f9203624d5bfba2488c28764736f6c63430008180033","opcodes":"PUSH1 0x80 DUP1 PUSH1 0x40 MSTORE CALLVALUE PUSH2 0x4F JUMPI CALLER PUSH1 0x1 DUP1 PUSH1 0xA0 SHL SUB NOT PUSH1 0x2 SLOAD AND OR PUSH1 0x2 SSTORE CALLER PUSH1 0x0 MSTORE PUSH1 0x1 PUSH1 0x20 MSTORE PUSH1 0x40 PUSH1 0x0 KECCAK256 PUSH1 0x1 PUSH1 0xFF NOT DUP3 SLOAD AND OR SWAP1 SSTORE PUSH1 0x1 PUSH1 0x0 SSTORE PUSH1 0x0 PUSH1 0x3 SSTORE PUSH1 0x0 PUSH1 0x4 SSTORE PUSH2 0x227E SWAP1 DUP2 PUSH2 0x55 DUP3 CODECOPY RETURN JUMPDEST PUSH1 0x0 DUP1 REVERT INVALID PUSH2 0x160 PUSH1 0x40 MSTORE PUSH1 0x4 CALLDATASIZE LT ISZERO PUSH2 0x13 JUMPI PUSH1 0x0 DUP1 REVERT JUMPDEST PUSH1 0x0 CALLDATALOAD PUSH1 0xE0 SHR DUP1 PUSH4 0x1C26644D EQ PUSH2 0x1D1A JUMPI DUP1 PUSH4 0x24D7806C EQ PUSH2 0x1C6F JUMPI DUP1 PUSH4 0x2E440321 EQ PUSH2 0x1CFC JUMPI DUP1 PUSH4 0x38226C2A EQ PUSH2 0x1CDE JUMPI DUP1 PUSH4 0x3EC774E6 EQ PUSH2 0x1CAE JUMPI DUP1 PUSH4 0x429B62E5 EQ PUSH2 0x1C6F JUMPI DUP1 PUSH4 0x640AE968 EQ PUSH2 0x1A4A JUMPI DUP1 PUSH4 0x70480275 EQ PUSH2 0x19DB JUMPI DUP1 PUSH4 0x81A6549C EQ PUSH2 0xED9 JUMPI DUP1 PUSH4 0x893D20E8 EQ PUSH2 0xEB0 JUMPI DUP1 PUSH4 0x8DA5CB5B EQ PUSH2 0xEB0 JUMPI DUP1 PUSH4 0xA8E5787B EQ PUSH2 0xDDB JUMPI DUP1 PUSH4 0xAEB0EDB7 EQ PUSH2 0x8F7 JUMPI DUP1 PUSH4 0xB21040ED EQ PUSH2 0x74C JUMPI DUP1 PUSH4 0xB2E63299 EQ PUSH2 0x68E JUMPI DUP1 PUSH4 0xB6B0D763 EQ PUSH2 0x5FA JUMPI DUP1 PUSH4 0xBFE2F428 EQ PUSH2 0x4FB JUMPI DUP1 PUSH4 0xC5394AC6 EQ PUSH2 0x479 JUMPI DUP1 PUSH4 0xCEEAEC8D EQ PUSH2 0x3BE JUMPI DUP1 PUSH4 0xE8A57A8B EQ PUSH2 0x2D5 JUMPI DUP1 PUSH4 0xEA70B4AF EQ PUSH2 0x2B7 JUMPI DUP1 PUSH4 0xF5253FCF EQ PUSH2 0x183 JUMPI PUSH4 0xFC96C8A8 EQ PUSH2 0x11A JUMPI PUSH1 0x0 DUP1 REVERT JUMPDEST CALLVALUE PUSH2 0x17E JUMPI PUSH1 0x0 CALLDATASIZE PUSH1 0x3 NOT ADD SLT PUSH2 0x17E JUMPI PUSH1 0x0 SLOAD DUP1 ISZERO PUSH2 0x174 JUMPI PUSH1 0x0 NOT DUP2 ADD SWAP1 DUP2 GT PUSH2 0x15E JUMPI PUSH1 0x1 PUSH1 0x1 PUSH1 0x40 SHL SUB PUSH1 0x20 SWAP2 AND JUMPDEST PUSH1 0x1 PUSH1 0x1 PUSH1 0x40 SHL SUB PUSH1 0x40 MLOAD SWAP2 AND DUP2 MSTORE RETURN JUMPDEST PUSH4 0x4E487B71 PUSH1 0xE0 SHL PUSH1 0x0 MSTORE PUSH1 0x11 PUSH1 0x4 MSTORE PUSH1 0x24 PUSH1 0x0 REVERT JUMPDEST POP PUSH1 0x20 PUSH1 0x0 PUSH2 0x14D JUMP JUMPDEST PUSH1 0x0 DUP1 REVERT JUMPDEST CALLVALUE PUSH2 0x17E JUMPI PUSH1 0x40 CALLDATASIZE PUSH1 0x3 NOT ADD SLT PUSH2 0x17E JUMPI PUSH2 0x19C PUSH2 0x1E1E JUMP JUMPDEST PUSH1 0x1 PUSH1 0x1 PUSH1 0x40 SHL SUB DUP1 PUSH2 0x1AD PUSH2 0x1E34 JUMP JUMPDEST AND PUSH2 0x1B7 DUP2 PUSH2 0x1F7A JUMP JUMPDEST SWAP2 PUSH1 0x0 SWAP2 PUSH1 0x1 SWAP5 DUP6 SWAP2 DUP3 PUSH1 0x1 PUSH1 0x0 SLOAD SWAP2 JUMPDEST PUSH2 0x218 JUMPI JUMPDEST POP POP POP POP POP PUSH2 0x1DB DUP3 PUSH2 0x1F7A JUMP JUMPDEST SWAP3 PUSH1 0x0 JUMPDEST DUP4 DUP2 LT PUSH2 0x1F8 JUMPI PUSH1 0x40 MLOAD DUP1 PUSH2 0x1F4 DUP8 DUP3 PUSH2 0x1E4A JUMP JUMPDEST SUB SWAP1 RETURN JUMPDEST DUP1 DUP4 PUSH2 0x205 DUP9 SWAP4 DUP6 PUSH2 0x1FBB JUMP JUMPDEST MLOAD AND PUSH2 0x211 DUP3 DUP9 PUSH2 0x1FBB JUMP JUMPDEST MSTORE ADD PUSH2 0x1DF JUMP JUMPDEST DUP2 DUP2 LT DUP1 PUSH2 0x2AE JUMPI JUMPDEST ISZERO PUSH2 0x2A9 JUMPI DUP1 PUSH1 0x0 MSTORE PUSH1 0x20 PUSH1 0xC DUP2 MSTORE PUSH1 0xFF SWAP1 DUP2 PUSH1 0x40 PUSH1 0x0 KECCAK256 SLOAD AND SWAP2 DUP3 PUSH2 0x296 JUMPI JUMPDEST POP DUP2 PUSH2 0x281 JUMPI JUMPDEST POP PUSH2 0x25E JUMPI JUMPDEST PUSH2 0x258 SWAP1 PUSH2 0x1FAC JUMP JUMPDEST DUP5 PUSH2 0x1C8 JUMP JUMPDEST SWAP6 PUSH2 0x279 PUSH2 0x258 SWAP2 DUP8 DUP10 AND PUSH2 0x273 DUP3 DUP13 PUSH2 0x1FBB JUMP JUMPDEST MSTORE PUSH2 0x1FAC JUMP JUMPDEST SWAP7 SWAP1 POP PUSH2 0x24F JUMP JUMPDEST PUSH1 0xA SWAP2 POP MSTORE PUSH1 0x40 PUSH1 0x0 KECCAK256 SLOAD DUP7 DUP6 AND EQ DUP11 PUSH2 0x249 JUMP JUMPDEST PUSH1 0xD DUP3 MSTORE PUSH1 0x40 PUSH1 0x0 KECCAK256 SLOAD AND SWAP2 POP DUP12 PUSH2 0x242 JUMP JUMPDEST PUSH2 0x1CD JUMP JUMPDEST POP DUP3 DUP8 LT PUSH2 0x221 JUMP JUMPDEST CALLVALUE PUSH2 0x17E JUMPI PUSH1 0x0 CALLDATASIZE PUSH1 0x3 NOT ADD SLT PUSH2 0x17E JUMPI PUSH1 0x20 PUSH1 0x3 SLOAD PUSH1 0x40 MLOAD SWAP1 DUP2 MSTORE RETURN JUMPDEST CALLVALUE PUSH2 0x17E JUMPI PUSH1 0x20 CALLDATASIZE PUSH1 0x3 NOT ADD SLT PUSH2 0x17E JUMPI PUSH2 0x2EE PUSH2 0x1E1E JUMP JUMPDEST CALLER PUSH1 0x0 MSTORE PUSH1 0x1 PUSH1 0x20 MSTORE PUSH1 0xFF PUSH1 0x40 PUSH1 0x0 KECCAK256 SLOAD AND ISZERO PUSH2 0x3AD JUMPI PUSH1 0x1 PUSH1 0x1 PUSH1 0x40 SHL SUB AND PUSH1 0x0 DUP2 DUP2 MSTORE PUSH1 0xB PUSH1 0x20 MSTORE PUSH1 0x40 SWAP1 KECCAK256 SLOAD PUSH1 0x1 PUSH1 0x1 PUSH1 0xA0 SHL SUB AND ISZERO PUSH2 0x39B JUMPI DUP1 PUSH1 0x0 MSTORE PUSH1 0xD PUSH1 0x20 MSTORE PUSH1 0xFF PUSH1 0x40 PUSH1 0x0 KECCAK256 SLOAD AND ISZERO PUSH2 0x389 JUMPI PUSH1 0x4 SLOAD PUSH1 0x0 MSTORE PUSH1 0x14 PUSH1 0x20 MSTORE DUP1 PUSH1 0x40 PUSH1 0x0 KECCAK256 SSTORE PUSH2 0x35F PUSH1 0x4 SLOAD PUSH2 0x1FAC JUMP JUMPDEST PUSH1 0x4 SSTORE PUSH32 0xD591B89BEFBDD3F545E87E970A8E33050A92ECFCCFB625942222D33ED483412 PUSH1 0x0 DUP1 LOG2 STOP JUMPDEST PUSH1 0x40 MLOAD PUSH4 0xF8E3CA21 PUSH1 0xE0 SHL DUP2 MSTORE PUSH1 0x4 SWAP1 REVERT JUMPDEST PUSH1 0x40 MLOAD PUSH4 0x44B36949 PUSH1 0xE0 SHL DUP2 MSTORE PUSH1 0x4 SWAP1 REVERT JUMPDEST PUSH1 0x40 MLOAD PUSH3 0x82B429 PUSH1 0xE8 SHL DUP2 MSTORE PUSH1 0x4 SWAP1 REVERT JUMPDEST CALLVALUE PUSH2 0x17E JUMPI PUSH1 0x40 CALLDATASIZE PUSH1 0x3 NOT ADD SLT PUSH2 0x17E JUMPI PUSH2 0x3D7 PUSH2 0x1E1E JUMP JUMPDEST PUSH2 0x3DF PUSH2 0x1E34 JUMP JUMPDEST SWAP1 PUSH1 0x1 PUSH1 0x1 PUSH1 0x40 SHL SUB DUP1 SWAP2 AND SWAP2 DUP3 PUSH1 0x0 MSTORE PUSH1 0x20 SWAP2 PUSH1 0xB DUP4 MSTORE PUSH1 0x1 DUP1 PUSH1 0xA0 SHL SUB PUSH1 0x40 PUSH1 0x0 KECCAK256 SLOAD AND ISZERO PUSH2 0x39B JUMPI DUP4 PUSH1 0x0 MSTORE PUSH1 0x11 DUP4 MSTORE PUSH1 0x40 PUSH1 0x0 KECCAK256 SLOAD SWAP2 AND SWAP1 DUP2 LT ISZERO PUSH2 0x467 JUMPI PUSH2 0x44C SWAP3 PUSH1 0x0 MSTORE PUSH1 0x12 DUP3 MSTORE PUSH1 0x40 PUSH1 0x0 KECCAK256 SWAP1 PUSH1 0x0 MSTORE DUP2 MSTORE PUSH2 0x453 PUSH1 0x40 PUSH1 0x0 KECCAK256 PUSH1 0x40 MLOAD SWAP4 DUP5 DUP1 SWAP3 PUSH2 0x2150 JUMP JUMPDEST SUB DUP4 PUSH2 0x1F42 JUMP JUMPDEST PUSH2 0x1F4 PUSH1 0x40 MLOAD SWAP3 DUP3 DUP5 SWAP4 DUP5 MSTORE DUP4 ADD SWAP1 PUSH2 0x1EA5 JUMP JUMPDEST PUSH1 0x40 MLOAD PUSH4 0xB4FA3FB3 PUSH1 0xE0 SHL DUP2 MSTORE PUSH1 0x4 SWAP1 REVERT JUMPDEST CALLVALUE PUSH2 0x17E JUMPI PUSH1 0x20 DUP1 PUSH1 0x3 NOT CALLDATASIZE ADD SLT PUSH2 0x17E JUMPI PUSH2 0x493 PUSH2 0x1E1E JUMP JUMPDEST PUSH1 0x4 SLOAD PUSH1 0x1 PUSH1 0x1 PUSH1 0x40 SHL SUB SWAP2 DUP3 AND SWAP1 DUP1 DUP3 LT ISZERO PUSH2 0x4F3 JUMPI POP SWAP1 JUMPDEST PUSH2 0x4B6 DUP3 PUSH2 0x1F7A JUMP JUMPDEST SWAP3 PUSH1 0x0 JUMPDEST DUP4 DUP2 LT PUSH2 0x4CF JUMPI PUSH1 0x40 MLOAD DUP1 PUSH2 0x1F4 DUP8 DUP3 PUSH2 0x1E4A JUMP JUMPDEST DUP1 PUSH1 0x1 SWAP2 PUSH1 0x0 MSTORE PUSH1 0x14 DUP4 MSTORE DUP4 PUSH1 0x40 PUSH1 0x0 KECCAK256 SLOAD AND PUSH2 0x4EC DUP3 DUP9 PUSH2 0x1FBB JUMP JUMPDEST MSTORE ADD PUSH2 0x4BA JUMP JUMPDEST SWAP1 POP SWAP1 PUSH2 0x4AD JUMP JUMPDEST CALLVALUE PUSH2 0x17E JUMPI PUSH1 0x40 CALLDATASIZE PUSH1 0x3 NOT ADD SLT PUSH2 0x17E JUMPI PUSH2 0x514 PUSH2 0x1E8F JUMP JUMPDEST PUSH1 0x1 PUSH1 0x1 PUSH1 0x40 SHL SUB DUP1 PUSH2 0x525 PUSH2 0x1E34 JUMP JUMPDEST AND PUSH2 0x52F DUP2 PUSH2 0x1F7A JUMP JUMPDEST PUSH1 0x0 DUP1 SLOAD PUSH1 0x1 SWAP6 SWAP3 SWAP5 SWAP2 SWAP4 SWAP2 SWAP3 DUP7 SWAP3 PUSH1 0x1 PUSH1 0x1 PUSH1 0xA0 SHL SUB SWAP2 DUP3 AND SWAP3 DUP5 DUP1 JUMPDEST PUSH2 0x59A JUMPI JUMPDEST POP POP POP POP POP POP PUSH2 0x561 DUP3 PUSH2 0x1F7A JUMP JUMPDEST SWAP3 PUSH1 0x0 JUMPDEST DUP4 DUP2 LT PUSH2 0x57A JUMPI PUSH1 0x40 MLOAD DUP1 PUSH2 0x1F4 DUP8 DUP3 PUSH2 0x1E4A JUMP JUMPDEST DUP1 DUP4 PUSH2 0x587 DUP9 SWAP4 DUP6 PUSH2 0x1FBB JUMP JUMPDEST MLOAD AND PUSH2 0x593 DUP3 DUP9 PUSH2 0x1FBB JUMP JUMPDEST MSTORE ADD PUSH2 0x565 JUMP JUMPDEST DUP2 DUP2 LT DUP1 PUSH2 0x5F1 JUMPI JUMPDEST ISZERO PUSH2 0x5EC JUMPI DUP1 PUSH1 0x0 MSTORE PUSH1 0xB PUSH1 0x20 MSTORE DUP5 DUP5 PUSH1 0x40 PUSH1 0x0 KECCAK256 SLOAD AND EQ PUSH2 0x5CF JUMPI JUMPDEST PUSH2 0x5C9 SWAP1 PUSH2 0x1FAC JUMP JUMPDEST DUP6 PUSH2 0x54D JUMP JUMPDEST SWAP7 PUSH2 0x5E4 PUSH2 0x5C9 SWAP2 DUP9 DUP11 AND PUSH2 0x273 DUP3 DUP14 PUSH2 0x1FBB JUMP JUMPDEST SWAP8 SWAP1 POP PUSH2 0x5C0 JUMP JUMPDEST PUSH2 0x552 JUMP JUMPDEST POP DUP3 DUP9 LT PUSH2 0x5A3 JUMP JUMPDEST CALLVALUE PUSH2 0x17E JUMPI PUSH1 0x20 CALLDATASIZE PUSH1 0x3 NOT ADD SLT PUSH2 0x17E JUMPI PUSH1 0x1 PUSH1 0x1 PUSH1 0x40 SHL SUB PUSH2 0x61B PUSH2 0x1E1E JUMP JUMPDEST AND PUSH1 0x0 DUP2 DUP2 MSTORE PUSH1 0xB PUSH1 0x20 MSTORE PUSH1 0x40 SWAP1 KECCAK256 SLOAD PUSH1 0x1 PUSH1 0x1 PUSH1 0xA0 SHL SUB SWAP1 DUP2 AND ISZERO PUSH2 0x39B JUMPI DUP2 PUSH1 0x0 MSTORE PUSH1 0xB PUSH1 0x20 MSTORE PUSH1 0x40 PUSH1 0x0 KECCAK256 SLOAD AND CALLER SUB PUSH2 0x3AD JUMPI DUP1 PUSH1 0x0 MSTORE PUSH1 0xC PUSH1 0x20 MSTORE PUSH1 0x40 PUSH1 0x0 KECCAK256 PUSH1 0xFF NOT DUP2 SLOAD AND SWAP1 SSTORE PUSH32 0x6A5796835B285A093E2CB5CFFEA5D7AC692B33835D407793F8A8088656C48B07 PUSH1 0x0 DUP1 LOG2 STOP JUMPDEST CALLVALUE PUSH2 0x17E JUMPI PUSH1 0x20 CALLDATASIZE PUSH1 0x3 NOT ADD SLT PUSH2 0x17E JUMPI PUSH2 0x6A7 PUSH2 0x1E1E JUMP JUMPDEST CALLER PUSH1 0x0 MSTORE PUSH1 0x1 PUSH1 0x20 MSTORE PUSH1 0xFF PUSH1 0x40 PUSH1 0x0 KECCAK256 SLOAD AND ISZERO PUSH2 0x3AD JUMPI PUSH1 0x1 PUSH1 0x1 PUSH1 0x40 SHL SUB AND PUSH1 0x0 DUP2 DUP2 MSTORE PUSH1 0xB PUSH1 0x20 MSTORE PUSH1 0x40 SWAP1 KECCAK256 SLOAD PUSH1 0x1 PUSH1 0x1 PUSH1 0xA0 SHL SUB AND ISZERO PUSH2 0x39B JUMPI DUP1 PUSH1 0x0 MSTORE PUSH1 0xD PUSH1 0x20 MSTORE PUSH1 0xFF PUSH1 0x40 PUSH1 0x0 KECCAK256 SLOAD AND PUSH2 0x73A JUMPI DUP1 PUSH1 0x0 MSTORE PUSH1 0xD PUSH1 0x20 MSTORE PUSH1 0x40 PUSH1 0x0 KECCAK256 PUSH1 0x1 PUSH1 0xFF NOT DUP3 SLOAD AND OR SWAP1 SSTORE PUSH32 0x6E4A191BEC6B38555CFD779A63CC17D626F41BB4B38A1FA8D38C06021BA96C31 PUSH1 0x0 DUP1 LOG2 STOP JUMPDEST PUSH1 0x40 MLOAD PUSH4 0x3E677831 PUSH1 0xE0 SHL DUP2 MSTORE PUSH1 0x4 SWAP1 REVERT JUMPDEST CALLVALUE PUSH2 0x17E JUMPI PUSH1 0x40 CALLDATASIZE PUSH1 0x3 NOT ADD SLT PUSH2 0x17E JUMPI PUSH1 0x1 PUSH1 0x1 PUSH1 0x40 SHL SUB PUSH1 0x4 CALLDATALOAD DUP2 DUP2 GT PUSH2 0x17E JUMPI PUSH2 0x77D SWAP1 CALLDATASIZE SWAP1 PUSH1 0x4 ADD PUSH2 0x1EE5 JUMP JUMPDEST SWAP1 SWAP2 DUP1 PUSH2 0x788 PUSH2 0x1E34 JUMP JUMPDEST AND SWAP1 PUSH2 0x793 DUP3 PUSH2 0x1F7A JUMP JUMPDEST SWAP3 PUSH1 0x0 SWAP3 PUSH1 0x1 SWAP6 DUP7 SWAP2 DUP3 PUSH1 0x1 PUSH1 0x0 SLOAD SWAP2 JUMPDEST PUSH2 0x7F1 JUMPI JUMPDEST POP POP POP POP POP POP PUSH2 0x7B8 DUP3 PUSH2 0x1F7A JUMP JUMPDEST SWAP3 PUSH1 0x0 JUMPDEST DUP4 DUP2 LT PUSH2 0x7D1 JUMPI PUSH1 0x40 MLOAD DUP1 PUSH2 0x1F4 DUP8 DUP3 PUSH2 0x1E4A JUMP JUMPDEST DUP1 DUP4 PUSH2 0x7DE DUP9 SWAP4 DUP6 PUSH2 0x1FBB JUMP JUMPDEST MLOAD AND PUSH2 0x7EA DUP3 DUP9 PUSH2 0x1FBB JUMP JUMPDEST MSTORE ADD PUSH2 0x7BC JUMP JUMPDEST DUP2 DUP2 LT DUP1 PUSH2 0x8EE JUMPI JUMPDEST ISZERO PUSH2 0x8E9 JUMPI DUP1 PUSH1 0x0 MSTORE PUSH1 0x20 PUSH1 0xC DUP2 MSTORE PUSH1 0xFF DUP1 PUSH1 0x40 PUSH1 0x0 KECCAK256 SLOAD AND SWAP1 DUP2 PUSH2 0x8D6 JUMPI JUMPDEST POP PUSH2 0x830 JUMPI JUMPDEST POP PUSH2 0x82A SWAP1 PUSH2 0x1FAC JUMP JUMPDEST DUP5 PUSH2 0x7A4 JUMP JUMPDEST SWAP5 POP PUSH1 0x9 DUP6 MSTORE PUSH2 0x84D PUSH2 0x854 PUSH1 0x40 PUSH1 0x0 KECCAK256 PUSH1 0x40 MLOAD SWAP3 DUP4 DUP1 SWAP3 PUSH2 0x2150 JUMP JUMPDEST SUB DUP3 PUSH2 0x1F42 JUMP JUMPDEST DUP6 DUP2 MLOAD SWAP2 ADD KECCAK256 DUP8 DUP8 GT PUSH2 0x8C0 JUMPI PUSH1 0x40 MLOAD PUSH2 0x877 PUSH1 0x1F DUP10 ADD PUSH1 0x1F NOT AND DUP9 ADD DUP3 PUSH2 0x1F42 JUMP JUMPDEST DUP8 DUP2 MSTORE DUP7 DUP2 ADD SWAP1 CALLDATASIZE DUP10 DUP9 ADD GT PUSH2 0x17E JUMPI PUSH1 0x0 DUP14 SWAP9 DUP11 DUP10 DUP6 CALLDATACOPY DUP11 DUP4 ADD ADD MSTORE MLOAD SWAP1 KECCAK256 EQ PUSH2 0x8A3 JUMPI JUMPDEST DUP11 PUSH2 0x820 JUMP JUMPDEST SWAP7 PUSH2 0x8B8 PUSH2 0x82A SWAP2 DUP9 DUP11 AND PUSH2 0x273 DUP3 DUP14 PUSH2 0x1FBB JUMP JUMPDEST SWAP8 SWAP1 POP PUSH2 0x89D JUMP JUMPDEST PUSH4 0x4E487B71 PUSH1 0xE0 SHL PUSH1 0x0 MSTORE PUSH1 0x41 PUSH1 0x4 MSTORE PUSH1 0x24 PUSH1 0x0 REVERT JUMPDEST SWAP1 POP PUSH1 0xD DUP3 MSTORE PUSH1 0x40 PUSH1 0x0 KECCAK256 SLOAD AND DUP13 PUSH2 0x81A JUMP JUMPDEST PUSH2 0x7A9 JUMP JUMPDEST POP DUP3 DUP9 LT PUSH2 0x7FA JUMP JUMPDEST CALLVALUE PUSH2 0x17E JUMPI PUSH1 0x80 CALLDATASIZE PUSH1 0x3 NOT ADD SLT PUSH2 0x17E JUMPI PUSH2 0x910 PUSH2 0x1E1E JUMP JUMPDEST PUSH1 0x24 CALLDATALOAD PUSH1 0x1 PUSH1 0x1 PUSH1 0x40 SHL SUB DUP2 GT PUSH2 0x17E JUMPI PUSH2 0x92F SWAP1 CALLDATASIZE SWAP1 PUSH1 0x4 ADD PUSH2 0x1EE5 JUMP JUMPDEST SWAP1 PUSH1 0x44 CALLDATALOAD PUSH1 0x1 PUSH1 0x1 PUSH1 0x40 SHL SUB DUP2 GT PUSH2 0x17E JUMPI PUSH2 0x94F SWAP1 CALLDATASIZE SWAP1 PUSH1 0x4 ADD PUSH2 0x1EE5 JUMP JUMPDEST PUSH1 0x64 CALLDATALOAD PUSH1 0x1 PUSH1 0x1 PUSH1 0x40 SHL SUB DUP2 GT PUSH2 0x17E JUMPI PUSH2 0x96E SWAP1 CALLDATASIZE SWAP1 PUSH1 0x4 ADD PUSH2 0x1F12 JUMP JUMPDEST SWAP4 SWAP1 SWAP5 PUSH1 0x1 PUSH1 0x1 PUSH1 0x40 SHL SUB DUP8 AND PUSH1 0x0 MSTORE PUSH1 0xB PUSH1 0x20 MSTORE PUSH1 0x1 DUP1 PUSH1 0xA0 SHL SUB DUP1 PUSH1 0x40 PUSH1 0x0 KECCAK256 SLOAD AND ISZERO PUSH2 0x39B JUMPI PUSH1 0x1 PUSH1 0x1 PUSH1 0x40 SHL SUB DUP9 AND PUSH1 0x0 MSTORE PUSH1 0xB PUSH1 0x20 MSTORE PUSH1 0x40 PUSH1 0x0 KECCAK256 SLOAD AND CALLER SUB PUSH2 0x3AD JUMPI DUP1 ISZERO DUP1 ISZERO PUSH2 0xDD0 JUMPI JUMPDEST PUSH2 0x467 JUMPI DUP3 ISZERO PUSH2 0x467 JUMPI PUSH1 0x5 DUP6 GT PUSH2 0x467 JUMPI PUSH1 0x1 PUSH1 0x1 PUSH1 0x40 SHL SUB DUP8 AND PUSH1 0x0 MSTORE PUSH1 0x6 PUSH1 0x20 MSTORE PUSH1 0x40 PUSH1 0x0 KECCAK256 SWAP2 PUSH1 0x1 PUSH1 0x1 PUSH1 0x40 SHL SUB DUP3 GT PUSH2 0x8C0 JUMPI DUP2 SWAP1 PUSH2 0xA03 DUP5 SLOAD PUSH2 0x2116 JUMP JUMPDEST PUSH1 0x1F DUP2 GT PUSH2 0xD80 JUMPI JUMPDEST POP PUSH1 0x0 SWAP1 PUSH1 0x1F DUP4 GT PUSH1 0x1 EQ PUSH2 0xD15 JUMPI PUSH1 0x0 SWAP3 PUSH2 0xD0A JUMPI JUMPDEST POP POP DUP2 PUSH1 0x1 SHL SWAP2 PUSH1 0x0 NOT SWAP1 PUSH1 0x3 SHL SHR NOT AND OR SWAP1 SSTORE JUMPDEST PUSH1 0x1 PUSH1 0x1 PUSH1 0x40 SHL SUB DUP6 AND PUSH1 0x0 MSTORE PUSH1 0x7 PUSH1 0x20 MSTORE PUSH1 0x40 PUSH1 0x0 KECCAK256 SWAP2 PUSH1 0x1 PUSH1 0x1 PUSH1 0x40 SHL SUB DUP3 GT PUSH2 0x8C0 JUMPI DUP2 SWAP1 PUSH2 0xA6A DUP5 SLOAD PUSH2 0x2116 JUMP JUMPDEST PUSH1 0x1F DUP2 GT PUSH2 0xCB7 JUMPI JUMPDEST POP PUSH1 0x0 SWAP1 PUSH1 0x1F DUP4 GT PUSH1 0x1 EQ PUSH2 0xC4A JUMPI PUSH1 0x0 SWAP3 PUSH2 0xC3F JUMPI JUMPDEST POP POP DUP2 PUSH1 0x1 SHL SWAP2 PUSH1 0x0 NOT SWAP1 PUSH1 0x3 SHL SHR NOT AND OR SWAP1 SSTORE SWAP2 SWAP1 JUMPDEST PUSH1 0x1 PUSH1 0x1 PUSH1 0x40 SHL SUB DUP3 AND PUSH1 0x0 MSTORE PUSH1 0x11 PUSH1 0x20 MSTORE DUP3 PUSH1 0x40 PUSH1 0x0 KECCAK256 SSTORE PUSH1 0x0 SWAP3 JUMPDEST DUP1 DUP5 LT PUSH2 0xAF6 JUMPI PUSH1 0x1 PUSH1 0x1 PUSH1 0x40 SHL SUB DUP4 AND PUSH32 0xA113758A38CC8858BB6393DF2538BBD2487C8CA675CC8AD11DDA5DE9B183F66B PUSH1 0x0 DUP1 LOG2 STOP JUMPDEST PUSH2 0xB01 DUP5 DUP3 DUP5 PUSH2 0x21E6 JUMP JUMPDEST PUSH1 0x1 PUSH1 0x1 PUSH1 0x40 SHL SUB DUP6 SWAP7 SWAP3 SWAP7 AND PUSH1 0x0 MSTORE PUSH1 0x12 PUSH1 0x20 MSTORE PUSH1 0x40 PUSH1 0x0 KECCAK256 DUP3 PUSH1 0x0 MSTORE PUSH1 0x20 MSTORE PUSH1 0x40 PUSH1 0x0 KECCAK256 SWAP1 PUSH1 0x1 PUSH1 0x1 PUSH1 0x40 SHL SUB DUP2 GT PUSH2 0x8C0 JUMPI PUSH2 0xB40 DUP3 SLOAD PUSH2 0x2116 JUMP JUMPDEST PUSH1 0x1F DUP2 GT PUSH2 0xBF7 JUMPI JUMPDEST POP PUSH1 0x0 PUSH1 0x1F DUP3 GT PUSH1 0x1 EQ PUSH2 0xB8F JUMPI DUP2 SWAP1 PUSH1 0x1 SWAP6 SWAP7 SWAP8 SWAP9 PUSH1 0x0 SWAP3 PUSH2 0xB84 JUMPI JUMPDEST POP POP PUSH1 0x0 NOT PUSH1 0x3 DUP4 SWAP1 SHL SHR NOT AND SWAP1 DUP5 SHL OR SWAP1 SSTORE JUMPDEST ADD SWAP3 SWAP2 SWAP1 PUSH2 0xABE JUMP JUMPDEST ADD CALLDATALOAD SWAP1 POP DUP9 DUP1 PUSH2 0xB67 JUMP JUMPDEST PUSH1 0x1F NOT DUP3 AND SWAP8 DUP4 PUSH1 0x0 MSTORE PUSH1 0x20 PUSH1 0x0 KECCAK256 SWAP2 PUSH1 0x0 JUMPDEST DUP11 DUP2 LT PUSH2 0xBDF JUMPI POP DUP4 PUSH1 0x1 SWAP8 SWAP9 SWAP10 SWAP11 LT PUSH2 0xBC5 JUMPI JUMPDEST POP POP POP DUP4 SHL DUP4 ADD SWAP1 SSTORE PUSH2 0xB7B JUMP JUMPDEST ADD CALLDATALOAD PUSH1 0x0 NOT PUSH1 0x3 DUP5 SWAP1 SHL PUSH1 0xF8 AND SHR NOT AND SWAP1 SSTORE DUP8 DUP1 DUP1 PUSH2 0xBB7 JUMP JUMPDEST SWAP1 SWAP3 PUSH1 0x20 PUSH1 0x1 DUP2 SWAP3 DUP7 DUP7 ADD CALLDATALOAD DUP2 SSTORE ADD SWAP5 ADD SWAP2 ADD PUSH2 0xBA2 JUMP JUMPDEST DUP3 PUSH1 0x0 MSTORE PUSH1 0x20 PUSH1 0x0 KECCAK256 PUSH1 0x1F DUP4 ADD PUSH1 0x5 SHR DUP2 ADD SWAP2 PUSH1 0x20 DUP5 LT PUSH2 0xC35 JUMPI JUMPDEST PUSH1 0x1F ADD PUSH1 0x5 SHR ADD SWAP1 JUMPDEST DUP2 DUP2 LT PUSH2 0xC29 JUMPI POP PUSH2 0xB49 JUMP JUMPDEST PUSH1 0x0 DUP2 SSTORE PUSH1 0x1 ADD PUSH2 0xC1C JUMP JUMPDEST SWAP1 SWAP2 POP DUP2 SWAP1 PUSH2 0xC13 JUMP JUMPDEST ADD CALLDATALOAD SWAP1 POP DUP7 DUP1 PUSH2 0xA8A JUMP JUMPDEST SWAP1 SWAP2 POP PUSH1 0x1F NOT DUP4 AND SWAP2 DUP5 PUSH1 0x0 MSTORE PUSH1 0x20 PUSH1 0x0 KECCAK256 SWAP3 PUSH1 0x0 JUMPDEST DUP2 DUP2 LT PUSH2 0xC9F JUMPI POP SWAP1 DUP5 PUSH1 0x1 SWAP6 SWAP5 SWAP4 SWAP3 LT PUSH2 0xC85 JUMPI JUMPDEST POP POP POP DUP2 SHL ADD SWAP1 SSTORE SWAP2 SWAP1 PUSH2 0xAA1 JUMP JUMPDEST ADD CALLDATALOAD PUSH1 0x0 NOT PUSH1 0x3 DUP5 SWAP1 SHL PUSH1 0xF8 AND SHR NOT AND SWAP1 SSTORE DUP7 DUP1 DUP1 PUSH2 0xC76 JUMP JUMPDEST SWAP2 SWAP4 PUSH1 0x20 PUSH1 0x1 DUP2 SWAP3 DUP8 DUP8 ADD CALLDATALOAD DUP2 SSTORE ADD SWAP6 ADD SWAP3 ADD PUSH2 0xC60 JUMP JUMPDEST SWAP1 SWAP2 POP DUP4 PUSH1 0x0 MSTORE PUSH1 0x20 PUSH1 0x0 KECCAK256 PUSH1 0x1F DUP5 ADD PUSH1 0x5 SHR DUP2 ADD SWAP2 PUSH1 0x20 DUP6 LT PUSH2 0xD00 JUMPI JUMPDEST SWAP1 PUSH1 0x1F DUP6 SWAP5 SWAP4 SWAP3 ADD PUSH1 0x5 SHR ADD SWAP1 JUMPDEST DUP2 DUP2 LT PUSH2 0xCF1 JUMPI POP PUSH2 0xA73 JUMP JUMPDEST PUSH1 0x0 DUP2 SSTORE DUP5 SWAP4 POP PUSH1 0x1 ADD PUSH2 0xCE4 JUMP JUMPDEST SWAP1 SWAP2 POP DUP2 SWAP1 PUSH2 0xCD6 JUMP JUMPDEST ADD CALLDATALOAD SWAP1 POP DUP9 DUP1 PUSH2 0xA23 JUMP JUMPDEST SWAP1 SWAP2 POP PUSH1 0x1F NOT DUP4 AND SWAP2 DUP5 PUSH1 0x0 MSTORE PUSH1 0x20 PUSH1 0x0 KECCAK256 SWAP3 PUSH1 0x0 JUMPDEST DUP2 DUP2 LT PUSH2 0xD68 JUMPI POP SWAP1 DUP5 PUSH1 0x1 SWAP6 SWAP5 SWAP4 SWAP3 LT PUSH2 0xD4E JUMPI JUMPDEST POP POP POP DUP2 SHL ADD SWAP1 SSTORE PUSH2 0xA38 JUMP JUMPDEST ADD CALLDATALOAD PUSH1 0x0 NOT PUSH1 0x3 DUP5 SWAP1 SHL PUSH1 0xF8 AND SHR NOT AND SWAP1 SSTORE DUP9 DUP1 DUP1 PUSH2 0xD41 JUMP JUMPDEST SWAP2 SWAP4 PUSH1 0x20 PUSH1 0x1 DUP2 SWAP3 DUP8 DUP8 ADD CALLDATALOAD DUP2 SSTORE ADD SWAP6 ADD SWAP3 ADD PUSH2 0xD2B JUMP JUMPDEST SWAP1 SWAP2 POP DUP4 PUSH1 0x0 MSTORE PUSH1 0x20 PUSH1 0x0 KECCAK256 PUSH1 0x1F DUP5 ADD PUSH1 0x5 SHR DUP2 ADD PUSH1 0x20 DUP6 LT PUSH2 0xDC9 JUMPI JUMPDEST SWAP1 DUP5 SWAP4 SWAP3 SWAP2 JUMPDEST PUSH1 0x1F DUP4 ADD PUSH1 0x5 SHR DUP3 ADD DUP2 LT PUSH2 0xDBA JUMPI POP POP PUSH2 0xA0C JUMP JUMPDEST PUSH1 0x0 DUP2 SSTORE DUP6 SWAP5 POP PUSH1 0x1 ADD PUSH2 0xDA4 JUMP JUMPDEST POP DUP1 PUSH2 0xD9E JUMP JUMPDEST POP PUSH2 0x3E8 DUP2 GT PUSH2 0x9BF JUMP JUMPDEST CALLVALUE PUSH2 0x17E JUMPI PUSH1 0x40 CALLDATASIZE PUSH1 0x3 NOT ADD SLT PUSH2 0x17E JUMPI PUSH2 0xDF4 PUSH2 0x1E1E JUMP JUMPDEST PUSH1 0x1 PUSH1 0x1 PUSH1 0x40 SHL SUB PUSH1 0x24 CALLDATALOAD DUP2 DUP2 GT PUSH2 0x17E JUMPI PUSH2 0xE14 SWAP1 CALLDATASIZE SWAP1 PUSH1 0x4 ADD PUSH2 0x1EE5 JUMP JUMPDEST SWAP1 SWAP2 CALLER PUSH1 0x0 MSTORE PUSH1 0x20 SWAP4 PUSH1 0x1 DUP6 MSTORE PUSH1 0xFF PUSH1 0x40 PUSH1 0x0 KECCAK256 SLOAD AND ISZERO PUSH2 0x3AD JUMPI AND PUSH1 0x0 DUP2 DUP2 MSTORE PUSH1 0xB DUP6 MSTORE PUSH1 0x40 SWAP1 KECCAK256 SLOAD SWAP1 SWAP4 SWAP1 PUSH1 0x1 PUSH1 0x1 PUSH1 0xA0 SHL SUB AND ISZERO PUSH2 0x39B JUMPI PUSH2 0xEAB PUSH32 0x7FA2B945164B7BE0A66A167BE5D4FC75A5B746418AB210A82985E04F0461B19A SWAP4 DUP6 PUSH1 0x0 MSTORE PUSH1 0xC DUP4 MSTORE PUSH1 0x40 PUSH1 0x0 KECCAK256 PUSH1 0xFF NOT SWAP1 DUP2 DUP2 SLOAD AND SWAP1 SSTORE PUSH1 0xD DUP5 MSTORE PUSH1 0x40 PUSH1 0x0 KECCAK256 SWAP1 DUP2 SLOAD AND SWAP1 SSTORE PUSH1 0x40 MLOAD SWAP4 DUP4 DUP6 SWAP5 DUP6 MSTORE DUP5 ADD SWAP2 PUSH2 0x2227 JUMP JUMPDEST SUB SWAP1 LOG2 STOP JUMPDEST CALLVALUE PUSH2 0x17E JUMPI PUSH1 0x0 CALLDATASIZE PUSH1 0x3 NOT ADD SLT PUSH2 0x17E JUMPI PUSH1 0x2 SLOAD PUSH1 0x40 MLOAD PUSH1 0x1 PUSH1 0x1 PUSH1 0xA0 SHL SUB SWAP1 SWAP2 AND DUP2 MSTORE PUSH1 0x20 SWAP1 RETURN JUMPDEST CALLVALUE PUSH2 0x17E JUMPI PUSH2 0x120 CALLDATASIZE PUSH1 0x3 NOT ADD SLT PUSH2 0x17E JUMPI PUSH1 0x4 CALLDATALOAD PUSH1 0x1 PUSH1 0x1 PUSH1 0x40 SHL SUB DUP2 GT PUSH2 0x17E JUMPI PUSH2 0xF0A SWAP1 CALLDATASIZE SWAP1 PUSH1 0x4 ADD PUSH2 0x1EE5 JUMP JUMPDEST PUSH1 0xC0 MSTORE PUSH1 0xE0 MSTORE PUSH1 0x24 CALLDATALOAD PUSH1 0x1 PUSH1 0x1 PUSH1 0x40 SHL SUB DUP2 GT PUSH2 0x17E JUMPI PUSH2 0xF2F SWAP1 CALLDATASIZE SWAP1 PUSH1 0x4 ADD PUSH2 0x1EE5 JUMP JUMPDEST SWAP1 PUSH1 0x44 CALLDATALOAD PUSH1 0x1 PUSH1 0x1 PUSH1 0x40 SHL SUB DUP2 GT PUSH2 0x17E JUMPI PUSH2 0xF4F SWAP1 CALLDATASIZE SWAP1 PUSH1 0x4 ADD PUSH2 0x1EE5 JUMP JUMPDEST SWAP1 PUSH1 0x64 CALLDATALOAD PUSH1 0x1 PUSH1 0x1 PUSH1 0x40 SHL SUB DUP2 GT PUSH2 0x17E JUMPI PUSH2 0xF6F SWAP1 CALLDATASIZE SWAP1 PUSH1 0x4 ADD PUSH2 0x1EE5 JUMP JUMPDEST PUSH1 0x84 CALLDATALOAD PUSH1 0x1 PUSH1 0x1 PUSH1 0x40 SHL SUB DUP2 GT PUSH2 0x17E JUMPI PUSH2 0xF8E SWAP1 CALLDATASIZE SWAP1 PUSH1 0x4 ADD PUSH2 0x1EE5 JUMP JUMPDEST PUSH2 0x100 MSTORE PUSH2 0x120 MSTORE PUSH1 0xA4 CALLDATALOAD PUSH1 0xA0 MSTORE PUSH1 0x1 PUSH1 0x1 PUSH1 0x40 SHL SUB PUSH1 0xA0 MLOAD AND PUSH1 0xA0 MLOAD SUB PUSH2 0x17E JUMPI PUSH1 0xC4 CALLDATALOAD SWAP3 DUP4 ISZERO ISZERO DUP5 SUB PUSH2 0x17E JUMPI PUSH1 0xE4 CALLDATALOAD PUSH1 0x1 PUSH1 0x1 PUSH1 0x40 SHL SUB DUP2 GT PUSH2 0x17E JUMPI PUSH2 0xFDC SWAP1 CALLDATASIZE SWAP1 PUSH1 0x4 ADD PUSH2 0x1EE5 JUMP JUMPDEST SWAP6 SWAP1 SWAP7 PUSH2 0x104 CALLDATALOAD PUSH1 0x1 PUSH1 0x1 PUSH1 0x40 SHL SUB DUP2 GT PUSH2 0x17E JUMPI PUSH2 0xFFF SWAP1 CALLDATASIZE SWAP1 PUSH1 0x4 ADD PUSH2 0x1F12 JUMP JUMPDEST SWAP1 PUSH1 0x80 MSTORE SWAP9 PUSH1 0xC0 MLOAD ISZERO DUP1 ISZERO PUSH2 0x19CF JUMPI JUMPDEST PUSH2 0x467 JUMPI DUP1 ISZERO DUP1 ISZERO PUSH2 0x19C4 JUMPI JUMPDEST PUSH2 0x467 JUMPI DUP3 ISZERO PUSH2 0x467 JUMPI PUSH1 0x5 DUP11 GT PUSH2 0x467 JUMPI PUSH1 0x0 SLOAD PUSH2 0x140 MSTORE PUSH2 0x1041 PUSH2 0x140 MLOAD PUSH2 0x1FAC JUMP JUMPDEST PUSH1 0x0 SSTORE PUSH2 0x140 MLOAD PUSH1 0x0 MSTORE PUSH1 0x5 PUSH1 0x20 MSTORE PUSH1 0x40 PUSH1 0x0 KECCAK256 PUSH1 0x1 PUSH1 0x1 PUSH1 0x40 SHL SUB PUSH1 0xC0 MLOAD GT PUSH2 0x8C0 JUMPI PUSH2 0x106F DUP2 SLOAD PUSH2 0x2116 JUMP JUMPDEST PUSH1 0x1F DUP2 GT PUSH2 0x197C JUMPI JUMPDEST POP PUSH1 0x0 PUSH1 0x1F PUSH1 0xC0 MLOAD GT PUSH1 0x1 EQ PUSH2 0x190A JUMPI PUSH1 0x0 SWAP1 PUSH1 0xC0 MLOAD PUSH2 0x18FD JUMPI JUMPDEST POP PUSH1 0xC0 MLOAD PUSH1 0x1 SHL SWAP1 PUSH1 0x0 NOT PUSH1 0xC0 MLOAD PUSH1 0x3 SHL SHR NOT AND OR SWAP1 SSTORE JUMPDEST PUSH2 0x140 MLOAD PUSH1 0x0 MSTORE PUSH1 0x6 PUSH1 0x20 MSTORE PUSH1 0x40 PUSH1 0x0 KECCAK256 SWAP2 PUSH1 0x1 PUSH1 0x1 PUSH1 0x40 SHL SUB DUP3 GT PUSH2 0x8C0 JUMPI DUP2 SWAP1 PUSH2 0x10D7 DUP5 SLOAD PUSH2 0x2116 JUMP JUMPDEST PUSH1 0x1F DUP2 GT PUSH2 0x18AD JUMPI JUMPDEST POP PUSH1 0x0 SWAP1 PUSH1 0x1F DUP4 GT PUSH1 0x1 EQ PUSH2 0x1845 JUMPI PUSH1 0x0 SWAP3 PUSH2 0x183A JUMPI JUMPDEST POP POP DUP2 PUSH1 0x1 SHL SWAP2 PUSH1 0x0 NOT SWAP1 PUSH1 0x3 SHL SHR NOT AND OR SWAP1 SSTORE JUMPDEST PUSH2 0x140 MLOAD PUSH1 0x0 MSTORE PUSH1 0x7 PUSH1 0x20 MSTORE PUSH1 0x40 PUSH1 0x0 KECCAK256 SWAP2 PUSH1 0x1 PUSH1 0x1 PUSH1 0x40 SHL SUB DUP3 GT PUSH2 0x8C0 JUMPI DUP2 SWAP1 PUSH2 0x1138 DUP5 SLOAD PUSH2 0x2116 JUMP JUMPDEST PUSH1 0x1F DUP2 GT PUSH2 0x17EA JUMPI JUMPDEST POP PUSH1 0x0 SWAP1 PUSH1 0x1F DUP4 GT PUSH1 0x1 EQ PUSH2 0x1782 JUMPI PUSH1 0x0 SWAP3 PUSH2 0x1777 JUMPI JUMPDEST POP POP DUP2 PUSH1 0x1 SHL SWAP2 PUSH1 0x0 NOT SWAP1 PUSH1 0x3 SHL SHR NOT AND OR SWAP1 SSTORE JUMPDEST PUSH2 0x140 MLOAD PUSH1 0x0 MSTORE PUSH1 0x8 PUSH1 0x20 MSTORE PUSH1 0x40 PUSH1 0x0 KECCAK256 SWAP2 PUSH1 0x1 PUSH1 0x1 PUSH1 0x40 SHL SUB DUP3 GT PUSH2 0x8C0 JUMPI DUP2 SWAP1 PUSH2 0x1199 DUP5 SLOAD PUSH2 0x2116 JUMP JUMPDEST PUSH1 0x1F DUP2 GT PUSH2 0x1727 JUMPI JUMPDEST POP PUSH1 0x0 SWAP1 PUSH1 0x1F DUP4 GT PUSH1 0x1 EQ PUSH2 0x16BF JUMPI PUSH1 0x0 SWAP3 PUSH2 0x16B4 JUMPI JUMPDEST POP POP DUP2 PUSH1 0x1 SHL SWAP2 PUSH1 0x0 NOT SWAP1 PUSH1 0x3 SHL SHR NOT AND OR SWAP1 SSTORE JUMPDEST PUSH2 0x140 MLOAD PUSH1 0x0 MSTORE PUSH1 0x9 PUSH1 0x20 MSTORE PUSH1 0x40 PUSH1 0x0 KECCAK256 PUSH1 0x1 PUSH1 0x1 PUSH1 0x40 SHL SUB PUSH2 0x100 MLOAD GT PUSH2 0x8C0 JUMPI PUSH2 0x11FA DUP2 SLOAD PUSH2 0x2116 JUMP JUMPDEST PUSH1 0x1F DUP2 GT PUSH2 0x166A JUMPI JUMPDEST POP PUSH1 0x0 PUSH1 0x1F PUSH2 0x100 MLOAD GT PUSH1 0x1 EQ PUSH2 0x15F2 JUMPI PUSH1 0x0 SWAP1 PUSH2 0x100 MLOAD PUSH2 0x15E4 JUMPI JUMPDEST POP PUSH2 0x100 MLOAD PUSH1 0x1 SHL SWAP1 PUSH1 0x0 NOT PUSH2 0x100 MLOAD PUSH1 0x3 SHL SHR NOT AND OR SWAP1 SSTORE JUMPDEST PUSH2 0x140 MLOAD PUSH1 0x0 MSTORE PUSH1 0xA PUSH1 0x20 MSTORE PUSH1 0x1 PUSH1 0x1 PUSH1 0x40 SHL SUB PUSH1 0xA0 MLOAD AND PUSH1 0x40 PUSH1 0x0 KECCAK256 SSTORE PUSH1 0xB PUSH1 0x20 MSTORE PUSH1 0x40 PUSH1 0x0 KECCAK256 CALLER PUSH12 0xFFFFFFFFFFFFFFFFFFFFFFFF PUSH1 0xA0 SHL DUP3 SLOAD AND OR SWAP1 SSTORE PUSH1 0xC PUSH1 0x20 MSTORE PUSH1 0x40 PUSH1 0x0 KECCAK256 SWAP1 PUSH1 0xFF NOT SWAP2 PUSH1 0x1 DUP4 DUP3 SLOAD AND OR SWAP1 SSTORE PUSH1 0xD PUSH1 0x20 MSTORE PUSH1 0x40 PUSH1 0x0 KECCAK256 DUP3 DUP2 SLOAD AND SWAP1 SSTORE PUSH1 0xE PUSH1 0x20 MSTORE TIMESTAMP PUSH1 0x40 PUSH1 0x0 KECCAK256 SSTORE PUSH1 0xF PUSH1 0x20 MSTORE PUSH1 0xFF PUSH1 0x40 PUSH1 0x0 KECCAK256 SWAP3 DUP4 SLOAD AND SWAP2 ISZERO ISZERO AND OR SWAP1 SSTORE PUSH1 0x10 PUSH1 0x20 MSTORE PUSH1 0x40 PUSH1 0x0 KECCAK256 SWAP2 PUSH1 0x1 PUSH1 0x1 PUSH1 0x40 SHL SUB DUP3 GT PUSH2 0x8C0 JUMPI DUP2 SWAP1 PUSH2 0x12E9 DUP5 SLOAD PUSH2 0x2116 JUMP JUMPDEST PUSH1 0x1F DUP2 GT PUSH2 0x1594 JUMPI JUMPDEST POP PUSH1 0x0 SWAP1 PUSH1 0x1F DUP4 GT PUSH1 0x1 EQ PUSH2 0x152C JUMPI PUSH1 0x0 SWAP3 PUSH2 0x1521 JUMPI JUMPDEST POP POP DUP2 PUSH1 0x1 SHL SWAP2 PUSH1 0x0 NOT SWAP1 PUSH1 0x3 SHL SHR NOT AND OR SWAP1 SSTORE JUMPDEST PUSH2 0x140 MLOAD PUSH1 0x0 MSTORE PUSH1 0x11 PUSH1 0x20 MSTORE DUP1 PUSH1 0x40 PUSH1 0x0 KECCAK256 SSTORE PUSH1 0x0 JUMPDEST DUP2 DUP2 LT PUSH2 0x13DC JUMPI PUSH1 0x3 SLOAD PUSH1 0x0 MSTORE PUSH1 0x13 PUSH1 0x20 MSTORE PUSH2 0x140 MLOAD PUSH1 0x40 PUSH1 0x0 KECCAK256 SSTORE PUSH2 0x135B PUSH1 0x3 SLOAD PUSH2 0x1FAC JUMP JUMPDEST PUSH1 0x3 SSTORE PUSH1 0x20 PUSH1 0x1 PUSH1 0x1 PUSH1 0x40 SHL SUB PUSH2 0x140 MLOAD AND DUP1 PUSH32 0x7F07BA959ED7A07C28880482B8BE10163E68B45D2B1E6847EC4B0F514680138 PUSH1 0x40 MLOAD PUSH1 0x60 DUP2 MSTORE DUP1 PUSH2 0x13C0 PUSH2 0x13AC PUSH1 0x60 DUP4 ADD PUSH1 0xC0 MLOAD PUSH1 0xE0 MLOAD PUSH2 0x2227 JUMP JUMPDEST DUP3 DUP2 SUB DUP9 DUP5 ADD MSTORE PUSH2 0x100 MLOAD PUSH2 0x120 MLOAD PUSH2 0x2227 JUMP JUMPDEST PUSH1 0x1 PUSH1 0x1 PUSH1 0x40 SHL SUB PUSH1 0xA0 MLOAD AND PUSH1 0x40 DUP4 ADD MSTORE SUB SWAP1 LOG2 PUSH1 0x40 MLOAD SWAP1 DUP2 MSTORE RETURN JUMPDEST PUSH2 0x13E9 DUP2 DUP4 PUSH1 0x80 MLOAD PUSH2 0x21E6 JUMP JUMPDEST PUSH2 0x140 MLOAD PUSH1 0x0 MSTORE PUSH1 0x12 PUSH1 0x20 MSTORE PUSH1 0x40 PUSH1 0x0 KECCAK256 DUP4 PUSH1 0x0 MSTORE PUSH1 0x20 MSTORE PUSH1 0x40 PUSH1 0x0 KECCAK256 SWAP2 PUSH1 0x1 PUSH1 0x1 PUSH1 0x40 SHL SUB DUP3 GT PUSH2 0x8C0 JUMPI PUSH2 0x141F DUP4 SLOAD PUSH2 0x2116 JUMP JUMPDEST PUSH1 0x1F DUP2 GT PUSH2 0x14D9 JUMPI JUMPDEST POP PUSH1 0x0 SWAP1 PUSH1 0x1F DUP4 GT PUSH1 0x1 EQ PUSH2 0x146B JUMPI PUSH1 0x1 SWAP5 SWAP4 SWAP3 SWAP2 PUSH1 0x0 SWAP2 DUP4 PUSH2 0x1460 JUMPI JUMPDEST POP POP PUSH1 0x0 NOT PUSH1 0x3 DUP4 SWAP1 SHL SHR NOT AND SWAP1 DUP5 SHL OR SWAP1 SSTORE JUMPDEST ADD PUSH2 0x1334 JUMP JUMPDEST ADD CALLDATALOAD SWAP1 POP DUP7 DUP1 PUSH2 0x1446 JUMP JUMPDEST DUP4 PUSH1 0x0 MSTORE PUSH1 0x20 PUSH1 0x0 KECCAK256 SWAP2 PUSH1 0x0 JUMPDEST PUSH1 0x1F NOT DUP6 AND DUP2 LT PUSH2 0x14C1 JUMPI POP SWAP2 DUP4 SWAP2 PUSH1 0x1 SWAP7 SWAP6 SWAP5 SWAP4 DUP8 SWAP5 PUSH1 0x1F NOT DUP2 AND LT PUSH2 0x14A7 JUMPI JUMPDEST POP POP POP DUP2 SHL ADD SWAP1 SSTORE PUSH2 0x145A JUMP JUMPDEST ADD CALLDATALOAD PUSH1 0x0 NOT PUSH1 0x3 DUP5 SWAP1 SHL PUSH1 0xF8 AND SHR NOT AND SWAP1 SSTORE DUP7 DUP1 DUP1 PUSH2 0x149A JUMP JUMPDEST SWAP1 SWAP3 PUSH1 0x20 PUSH1 0x1 DUP2 SWAP3 DUP7 DUP7 ADD CALLDATALOAD DUP2 SSTORE ADD SWAP5 ADD SWAP2 ADD PUSH2 0x1478 JUMP JUMPDEST DUP4 PUSH1 0x0 MSTORE PUSH1 0x20 PUSH1 0x0 KECCAK256 PUSH1 0x1F DUP5 ADD PUSH1 0x5 SHR DUP2 ADD SWAP2 PUSH1 0x20 DUP6 LT PUSH2 0x1517 JUMPI JUMPDEST PUSH1 0x1F ADD PUSH1 0x5 SHR ADD SWAP1 JUMPDEST DUP2 DUP2 LT PUSH2 0x150B JUMPI POP PUSH2 0x1428 JUMP JUMPDEST PUSH1 0x0 DUP2 SSTORE PUSH1 0x1 ADD PUSH2 0x14FE JUMP JUMPDEST SWAP1 SWAP2 POP DUP2 SWAP1 PUSH2 0x14F5 JUMP JUMPDEST ADD CALLDATALOAD SWAP1 POP DUP5 DUP1 PUSH2 0x1309 JUMP JUMPDEST PUSH1 0x0 DUP6 DUP2 MSTORE PUSH1 0x20 DUP2 KECCAK256 SWAP1 SWAP5 POP SWAP2 JUMPDEST PUSH1 0x1F NOT DUP5 AND DUP6 LT PUSH2 0x157C JUMPI PUSH1 0x1 SWAP5 POP DUP4 PUSH1 0x1F NOT DUP2 AND LT PUSH2 0x1562 JUMPI JUMPDEST POP POP POP DUP2 SHL ADD SWAP1 SSTORE PUSH2 0x131E JUMP JUMPDEST ADD CALLDATALOAD PUSH1 0x0 NOT PUSH1 0x3 DUP5 SWAP1 SHL PUSH1 0xF8 AND SHR NOT AND SWAP1 SSTORE DUP5 DUP1 DUP1 PUSH2 0x1555 JUMP JUMPDEST DUP2 DUP2 ADD CALLDATALOAD DUP4 SSTORE PUSH1 0x20 SWAP5 DUP6 ADD SWAP5 PUSH1 0x1 SWAP1 SWAP4 ADD SWAP3 ADD PUSH2 0x153A JUMP JUMPDEST SWAP1 SWAP2 POP DUP4 PUSH1 0x0 MSTORE PUSH1 0x20 PUSH1 0x0 KECCAK256 PUSH1 0x1F DUP5 ADD PUSH1 0x5 SHR DUP2 ADD PUSH1 0x20 DUP6 LT PUSH2 0x15DD JUMPI JUMPDEST SWAP1 DUP5 SWAP4 SWAP3 SWAP2 JUMPDEST PUSH1 0x1F DUP4 ADD PUSH1 0x5 SHR DUP3 ADD DUP2 LT PUSH2 0x15CE JUMPI POP POP PUSH2 0x12F2 JUMP JUMPDEST PUSH1 0x0 DUP2 SSTORE DUP6 SWAP5 POP PUSH1 0x1 ADD PUSH2 0x15B8 JUMP JUMPDEST POP DUP1 PUSH2 0x15B2 JUMP JUMPDEST SWAP1 POP PUSH2 0x120 MLOAD ADD CALLDATALOAD DUP7 PUSH2 0x1220 JUMP JUMPDEST DUP2 PUSH1 0x0 MSTORE PUSH1 0x20 PUSH1 0x0 KECCAK256 SWAP1 PUSH1 0x0 JUMPDEST PUSH2 0x100 MLOAD PUSH1 0x1F NOT AND DUP2 LT PUSH2 0x164F JUMPI POP PUSH2 0x100 MLOAD PUSH1 0x1F NOT DUP2 AND LT PUSH2 0x162F JUMPI JUMPDEST POP POP PUSH1 0x1 PUSH2 0x100 MLOAD DUP2 SHL ADD SWAP1 SSTORE PUSH2 0x123A JUMP JUMPDEST PUSH1 0x0 NOT PUSH1 0xF8 PUSH2 0x100 MLOAD PUSH1 0x3 SHL AND SHR NOT SWAP1 PUSH2 0x120 MLOAD ADD CALLDATALOAD AND SWAP1 SSTORE DUP6 DUP1 PUSH2 0x161D JUMP JUMPDEST SWAP1 SWAP2 PUSH1 0x20 PUSH1 0x1 DUP2 SWAP3 DUP6 PUSH2 0x120 MLOAD ADD CALLDATALOAD DUP2 SSTORE ADD SWAP4 ADD SWAP2 ADD PUSH2 0x15FF JUMP JUMPDEST DUP2 PUSH1 0x0 MSTORE PUSH1 0x20 PUSH1 0x0 KECCAK256 PUSH1 0x1F PUSH2 0x100 MLOAD ADD PUSH1 0x5 SHR DUP2 ADD PUSH1 0x20 PUSH2 0x100 MLOAD LT PUSH2 0x16AD JUMPI JUMPDEST PUSH1 0x1F DUP4 ADD PUSH1 0x5 SHR DUP3 ADD DUP2 LT PUSH2 0x16A1 JUMPI POP POP PUSH2 0x1203 JUMP JUMPDEST PUSH1 0x0 DUP2 SSTORE PUSH1 0x1 ADD PUSH2 0x168B JUMP JUMPDEST POP DUP1 PUSH2 0x168B JUMP JUMPDEST ADD CALLDATALOAD SWAP1 POP DUP8 DUP1 PUSH2 0x11B9 JUMP JUMPDEST PUSH1 0x0 DUP6 DUP2 MSTORE PUSH1 0x20 DUP2 KECCAK256 SWAP1 SWAP5 POP SWAP2 JUMPDEST PUSH1 0x1F NOT DUP5 AND DUP6 LT PUSH2 0x170F JUMPI PUSH1 0x1 SWAP5 POP DUP4 PUSH1 0x1F NOT DUP2 AND LT PUSH2 0x16F5 JUMPI JUMPDEST POP POP POP DUP2 SHL ADD SWAP1 SSTORE PUSH2 0x11CE JUMP JUMPDEST ADD CALLDATALOAD PUSH1 0x0 NOT PUSH1 0x3 DUP5 SWAP1 SHL PUSH1 0xF8 AND SHR NOT AND SWAP1 SSTORE DUP8 DUP1 DUP1 PUSH2 0x16E8 JUMP JUMPDEST DUP2 DUP2 ADD CALLDATALOAD DUP4 SSTORE PUSH1 0x20 SWAP5 DUP6 ADD SWAP5 PUSH1 0x1 SWAP1 SWAP4 ADD SWAP3 ADD PUSH2 0x16CD JUMP JUMPDEST SWAP1 SWAP2 POP DUP4 PUSH1 0x0 MSTORE PUSH1 0x20 PUSH1 0x0 KECCAK256 PUSH1 0x1F DUP5 ADD PUSH1 0x5 SHR DUP2 ADD PUSH1 0x20 DUP6 LT PUSH2 0x1770 JUMPI JUMPDEST SWAP1 DUP5 SWAP4 SWAP3 SWAP2 JUMPDEST PUSH1 0x1F DUP4 ADD PUSH1 0x5 SHR DUP3 ADD DUP2 LT PUSH2 0x1761 JUMPI POP POP PUSH2 0x11A2 JUMP JUMPDEST PUSH1 0x0 DUP2 SSTORE DUP6 SWAP5 POP PUSH1 0x1 ADD PUSH2 0x174B JUMP JUMPDEST POP DUP1 PUSH2 0x1745 JUMP JUMPDEST ADD CALLDATALOAD SWAP1 POP DUP10 DUP1 PUSH2 0x1158 JUMP JUMPDEST PUSH1 0x0 DUP6 DUP2 MSTORE PUSH1 0x20 DUP2 KECCAK256 SWAP1 SWAP5 POP SWAP2 JUMPDEST PUSH1 0x1F NOT DUP5 AND DUP6 LT PUSH2 0x17D2 JUMPI PUSH1 0x1 SWAP5 POP DUP4 PUSH1 0x1F NOT DUP2 AND LT PUSH2 0x17B8 JUMPI JUMPDEST POP POP POP DUP2 SHL ADD SWAP1 SSTORE PUSH2 0x116D JUMP JUMPDEST ADD CALLDATALOAD PUSH1 0x0 NOT PUSH1 0x3 DUP5 SWAP1 SHL PUSH1 0xF8 AND SHR NOT AND SWAP1 SSTORE DUP10 DUP1 DUP1 PUSH2 0x17AB JUMP JUMPDEST DUP2 DUP2 ADD CALLDATALOAD DUP4 SSTORE PUSH1 0x20 SWAP5 DUP6 ADD SWAP5 PUSH1 0x1 SWAP1 SWAP4 ADD SWAP3 ADD PUSH2 0x1790 JUMP JUMPDEST SWAP1 SWAP2 POP DUP4 PUSH1 0x0 MSTORE PUSH1 0x20 PUSH1 0x0 KECCAK256 PUSH1 0x1F DUP5 ADD PUSH1 0x5 SHR DUP2 ADD PUSH1 0x20 DUP6 LT PUSH2 0x1833 JUMPI JUMPDEST SWAP1 DUP5 SWAP4 SWAP3 SWAP2 JUMPDEST PUSH1 0x1F DUP4 ADD PUSH1 0x5 SHR DUP3 ADD DUP2 LT PUSH2 0x1824 JUMPI POP POP PUSH2 0x1141 JUMP JUMPDEST PUSH1 0x0 DUP2 SSTORE DUP6 SWAP5 POP PUSH1 0x1 ADD PUSH2 0x180E JUMP JUMPDEST POP DUP1 PUSH2 0x1808 JUMP JUMPDEST ADD CALLDATALOAD SWAP1 POP DUP12 DUP1 PUSH2 0x10F7 JUMP JUMPDEST PUSH1 0x0 DUP6 DUP2 MSTORE PUSH1 0x20 DUP2 KECCAK256 SWAP1 SWAP5 POP SWAP2 JUMPDEST PUSH1 0x1F NOT DUP5 AND DUP6 LT PUSH2 0x1895 JUMPI PUSH1 0x1 SWAP5 POP DUP4 PUSH1 0x1F NOT DUP2 AND LT PUSH2 0x187B JUMPI JUMPDEST POP POP POP DUP2 SHL ADD SWAP1 SSTORE PUSH2 0x110C JUMP JUMPDEST ADD CALLDATALOAD PUSH1 0x0 NOT PUSH1 0x3 DUP5 SWAP1 SHL PUSH1 0xF8 AND SHR NOT AND SWAP1 SSTORE DUP12 DUP1 DUP1 PUSH2 0x186E JUMP JUMPDEST DUP2 DUP2 ADD CALLDATALOAD DUP4 SSTORE PUSH1 0x20 SWAP5 DUP6 ADD SWAP5 PUSH1 0x1 SWAP1 SWAP4 ADD SWAP3 ADD PUSH2 0x1853 JUMP JUMPDEST SWAP1 SWAP2 POP DUP4 PUSH1 0x0 MSTORE PUSH1 0x20 PUSH1 0x0 KECCAK256 PUSH1 0x1F DUP5 ADD PUSH1 0x5 SHR DUP2 ADD PUSH1 0x20 DUP6 LT PUSH2 0x18F6 JUMPI JUMPDEST SWAP1 DUP5 SWAP4 SWAP3 SWAP2 JUMPDEST PUSH1 0x1F DUP4 ADD PUSH1 0x5 SHR DUP3 ADD DUP2 LT PUSH2 0x18E7 JUMPI POP POP PUSH2 0x10E0 JUMP JUMPDEST PUSH1 0x0 DUP2 SSTORE DUP6 SWAP5 POP PUSH1 0x1 ADD PUSH2 0x18D1 JUMP JUMPDEST POP DUP1 PUSH2 0x18CB JUMP JUMPDEST SWAP1 POP PUSH1 0xE0 MLOAD ADD CALLDATALOAD DUP13 PUSH2 0x1093 JUMP JUMPDEST DUP2 PUSH1 0x0 MSTORE PUSH1 0x20 PUSH1 0x0 KECCAK256 SWAP1 PUSH1 0x0 JUMPDEST PUSH1 0xC0 MLOAD PUSH1 0x1F NOT AND DUP2 LT PUSH2 0x1962 JUMPI POP PUSH1 0xC0 MLOAD PUSH1 0x1F NOT DUP2 AND LT PUSH2 0x1944 JUMPI JUMPDEST POP POP PUSH1 0x1 PUSH1 0xC0 MLOAD DUP2 SHL ADD SWAP1 SSTORE PUSH2 0x10AB JUMP JUMPDEST PUSH1 0x0 NOT PUSH1 0xF8 PUSH1 0xC0 MLOAD PUSH1 0x3 SHL AND SHR NOT SWAP1 PUSH1 0xE0 MLOAD ADD CALLDATALOAD AND SWAP1 SSTORE DUP12 DUP1 PUSH2 0x1933 JUMP JUMPDEST SWAP1 SWAP2 PUSH1 0x20 PUSH1 0x1 DUP2 SWAP3 DUP6 PUSH1 0xE0 MLOAD ADD CALLDATALOAD DUP2 SSTORE ADD SWAP4 ADD SWAP2 ADD PUSH2 0x1917 JUMP JUMPDEST DUP2 PUSH1 0x0 MSTORE PUSH1 0x20 PUSH1 0x0 KECCAK256 PUSH1 0x1F PUSH1 0xC0 MLOAD ADD PUSH1 0x5 SHR DUP2 ADD PUSH1 0x20 PUSH1 0xC0 MLOAD LT PUSH2 0x19BD JUMPI JUMPDEST PUSH1 0x1F DUP4 ADD PUSH1 0x5 SHR DUP3 ADD DUP2 LT PUSH2 0x19B1 JUMPI POP POP PUSH2 0x1078 JUMP JUMPDEST PUSH1 0x0 DUP2 SSTORE PUSH1 0x1 ADD PUSH2 0x199B JUMP JUMPDEST POP DUP1 PUSH2 0x199B JUMP JUMPDEST POP PUSH2 0x3E8 DUP2 GT PUSH2 0x101C JUMP JUMPDEST POP PUSH1 0x64 PUSH1 0xC0 MLOAD GT PUSH2 0x100F JUMP JUMPDEST CALLVALUE PUSH2 0x17E JUMPI PUSH1 0x20 CALLDATASIZE PUSH1 0x3 NOT ADD SLT PUSH2 0x17E JUMPI PUSH2 0x19F4 PUSH2 0x1E8F JUMP JUMPDEST PUSH1 0x2 SLOAD PUSH1 0x1 PUSH1 0x1 PUSH1 0xA0 SHL SUB SWAP2 SWAP1 DUP3 AND CALLER SUB PUSH2 0x3AD JUMPI AND DUP1 PUSH1 0x0 MSTORE PUSH1 0x1 PUSH1 0x20 MSTORE PUSH1 0x40 PUSH1 0x0 KECCAK256 PUSH1 0x1 PUSH1 0xFF NOT DUP3 SLOAD AND OR SWAP1 SSTORE PUSH32 0x44D6D25963F097AD14F29F06854A01F575648A1EF82F30E562CCD3889717E339 PUSH1 0x0 DUP1 LOG2 STOP JUMPDEST CALLVALUE PUSH2 0x17E JUMPI PUSH1 0x20 CALLDATASIZE PUSH1 0x3 NOT ADD SLT PUSH2 0x17E JUMPI PUSH1 0x1 PUSH1 0x1 PUSH1 0x40 SHL SUB DUP1 PUSH2 0x1A6C PUSH2 0x1E1E JUMP JUMPDEST AND PUSH1 0x0 DUP2 DUP2 MSTORE PUSH1 0xB PUSH1 0x20 MSTORE PUSH1 0x40 SWAP1 KECCAK256 SLOAD PUSH1 0x1 PUSH1 0x1 PUSH1 0xA0 SHL SUB SWAP1 DUP2 AND ISZERO PUSH2 0x39B JUMPI DUP2 PUSH1 0x0 MSTORE PUSH1 0x5 PUSH1 0x20 MSTORE PUSH1 0x40 PUSH1 0x0 KECCAK256 SWAP3 PUSH1 0x6 PUSH1 0x20 MSTORE PUSH1 0x40 PUSH1 0x0 KECCAK256 SWAP2 PUSH1 0x7 PUSH1 0x20 MSTORE PUSH1 0x40 PUSH1 0x0 KECCAK256 PUSH1 0x8 PUSH1 0x20 MSTORE PUSH1 0x40 PUSH1 0x0 KECCAK256 PUSH1 0x9 PUSH1 0x20 MSTORE PUSH1 0x40 PUSH1 0x0 KECCAK256 PUSH1 0xA PUSH1 0x20 MSTORE DUP5 PUSH1 0x40 PUSH1 0x0 KECCAK256 SLOAD AND SWAP4 PUSH1 0xB PUSH1 0x20 MSTORE PUSH1 0x40 PUSH1 0x0 KECCAK256 SLOAD AND PUSH1 0xC PUSH1 0x20 MSTORE PUSH1 0x40 PUSH1 0x0 KECCAK256 SLOAD PUSH1 0xFF AND SWAP1 PUSH1 0xD PUSH1 0x20 MSTORE PUSH1 0x40 PUSH1 0x0 KECCAK256 SLOAD PUSH1 0xFF AND SWAP3 PUSH1 0xE PUSH1 0x20 MSTORE DUP8 PUSH1 0x40 PUSH1 0x0 KECCAK256 SLOAD AND SWAP5 PUSH1 0xF PUSH1 0x20 MSTORE PUSH1 0x40 PUSH1 0x0 KECCAK256 SLOAD PUSH1 0xFF AND SWAP7 PUSH1 0x10 PUSH1 0x20 MSTORE PUSH1 0x40 PUSH1 0x0 KECCAK256 SWAP10 PUSH1 0x11 PUSH1 0x20 MSTORE PUSH1 0x40 PUSH1 0x0 KECCAK256 SLOAD AND SWAP11 PUSH1 0x40 MLOAD DUP1 SWAP15 PUSH2 0x1B41 DUP3 DUP1 SWAP3 PUSH2 0x2150 JUMP JUMPDEST SUB PUSH2 0x1B4B SWAP2 PUSH2 0x1F42 JUMP JUMPDEST PUSH1 0x40 MLOAD PUSH2 0x1B59 DUP2 DUP1 SWAP4 PUSH2 0x2150 JUMP JUMPDEST SUB PUSH2 0x1B64 SWAP1 DUP3 PUSH2 0x1F42 JUMP JUMPDEST PUSH1 0x40 MLOAD PUSH2 0x1B72 DUP2 DUP1 SWAP5 PUSH2 0x2150 JUMP JUMPDEST SUB PUSH2 0x1B7D SWAP1 DUP4 PUSH2 0x1F42 JUMP JUMPDEST PUSH1 0x40 MLOAD PUSH2 0x1B8B DUP2 DUP1 SWAP6 PUSH2 0x2150 JUMP JUMPDEST SUB PUSH2 0x1B96 SWAP1 DUP5 PUSH2 0x1F42 JUMP JUMPDEST PUSH1 0x40 MLOAD PUSH2 0x1BA4 DUP2 DUP1 SWAP7 PUSH2 0x2150 JUMP JUMPDEST SUB PUSH2 0x1BAF SWAP1 DUP6 PUSH2 0x1F42 JUMP JUMPDEST PUSH1 0x40 MLOAD PUSH2 0x1BBD DUP2 DUP1 SWAP14 PUSH2 0x2150 JUMP JUMPDEST SUB PUSH2 0x1BC8 SWAP1 DUP13 PUSH2 0x1F42 JUMP JUMPDEST PUSH1 0x40 MLOAD SWAP14 DUP15 SWAP14 DUP15 PUSH2 0x1C0 SWAP2 DUP2 MSTORE DUP2 PUSH1 0x20 DUP3 ADD MSTORE ADD PUSH2 0x1BE5 SWAP2 PUSH2 0x1EA5 JUMP JUMPDEST DUP14 DUP2 SUB PUSH1 0x40 DUP16 ADD MSTORE PUSH2 0x1BF6 SWAP2 PUSH2 0x1EA5 JUMP JUMPDEST DUP13 DUP2 SUB PUSH1 0x60 DUP15 ADD MSTORE PUSH2 0x1C07 SWAP2 PUSH2 0x1EA5 JUMP JUMPDEST DUP12 DUP2 SUB PUSH1 0x80 DUP14 ADD MSTORE PUSH2 0x1C18 SWAP2 PUSH2 0x1EA5 JUMP JUMPDEST DUP11 DUP2 SUB PUSH1 0xA0 DUP13 ADD MSTORE PUSH2 0x1C29 SWAP2 PUSH2 0x1EA5 JUMP JUMPDEST SWAP6 PUSH1 0xC0 DUP11 ADD MSTORE PUSH1 0xE0 DUP10 ADD MSTORE ISZERO ISZERO PUSH2 0x100 DUP9 ADD MSTORE ISZERO ISZERO PUSH2 0x120 DUP8 ADD MSTORE PUSH2 0x140 DUP7 ADD MSTORE ISZERO ISZERO PUSH2 0x160 DUP6 ADD MSTORE DUP4 DUP2 SUB PUSH2 0x180 DUP6 ADD MSTORE PUSH2 0x1C64 SWAP2 PUSH2 0x1EA5 JUMP JUMPDEST SWAP1 PUSH2 0x1A0 DUP4 ADD MSTORE SUB SWAP1 RETURN JUMPDEST CALLVALUE PUSH2 0x17E JUMPI PUSH1 0x20 CALLDATASIZE PUSH1 0x3 NOT ADD SLT PUSH2 0x17E JUMPI PUSH1 0x1 PUSH1 0x1 PUSH1 0xA0 SHL SUB PUSH2 0x1C90 PUSH2 0x1E8F JUMP JUMPDEST AND PUSH1 0x0 MSTORE PUSH1 0x1 PUSH1 0x20 MSTORE PUSH1 0x20 PUSH1 0xFF PUSH1 0x40 PUSH1 0x0 KECCAK256 SLOAD AND PUSH1 0x40 MLOAD SWAP1 ISZERO ISZERO DUP2 MSTORE RETURN JUMPDEST CALLVALUE PUSH2 0x17E JUMPI PUSH1 0x20 CALLDATASIZE PUSH1 0x3 NOT ADD SLT PUSH2 0x17E JUMPI PUSH2 0x1F4 PUSH2 0x1CD2 PUSH2 0x1CCD PUSH2 0x1E1E JUMP JUMPDEST PUSH2 0x1FE5 JUMP JUMPDEST PUSH1 0x40 MLOAD SWAP2 DUP3 SWAP2 DUP3 PUSH2 0x1E4A JUMP JUMPDEST CALLVALUE PUSH2 0x17E JUMPI PUSH1 0x0 CALLDATASIZE PUSH1 0x3 NOT ADD SLT PUSH2 0x17E JUMPI PUSH1 0x20 PUSH1 0x0 SLOAD PUSH1 0x40 MLOAD SWAP1 DUP2 MSTORE RETURN JUMPDEST CALLVALUE PUSH2 0x17E JUMPI PUSH1 0x0 CALLDATASIZE PUSH1 0x3 NOT ADD SLT PUSH2 0x17E JUMPI PUSH1 0x20 PUSH1 0x4 SLOAD PUSH1 0x40 MLOAD SWAP1 DUP2 MSTORE RETURN JUMPDEST CALLVALUE PUSH2 0x17E JUMPI PUSH1 0x20 DUP1 PUSH1 0x3 NOT CALLDATASIZE ADD SLT PUSH2 0x17E JUMPI PUSH1 0x1 PUSH1 0x1 PUSH1 0x40 SHL SUB DUP1 PUSH2 0x1D3D PUSH2 0x1E1E JUMP JUMPDEST AND PUSH2 0x1D47 DUP2 PUSH2 0x1F7A JUMP JUMPDEST SWAP2 PUSH1 0x0 SWAP2 PUSH1 0x1 SWAP5 DUP6 SWAP2 DUP3 PUSH1 0x1 PUSH1 0x0 SLOAD SWAP2 JUMPDEST PUSH2 0x1DA4 JUMPI JUMPDEST POP POP POP POP POP PUSH2 0x1D6B DUP3 PUSH2 0x1F7A JUMP JUMPDEST SWAP3 PUSH1 0x0 JUMPDEST DUP4 DUP2 LT PUSH2 0x1D84 JUMPI PUSH1 0x40 MLOAD DUP1 PUSH2 0x1F4 DUP8 DUP3 PUSH2 0x1E4A JUMP JUMPDEST DUP1 DUP4 PUSH2 0x1D91 DUP9 SWAP4 DUP6 PUSH2 0x1FBB JUMP JUMPDEST MLOAD AND PUSH2 0x1D9D DUP3 DUP9 PUSH2 0x1FBB JUMP JUMPDEST MSTORE ADD PUSH2 0x1D6F JUMP JUMPDEST DUP2 DUP2 LT DUP1 PUSH2 0x1E15 JUMPI JUMPDEST ISZERO PUSH2 0x1E10 JUMPI DUP1 PUSH1 0x0 MSTORE PUSH1 0xC DUP5 MSTORE PUSH1 0xFF DUP1 PUSH1 0x40 PUSH1 0x0 KECCAK256 SLOAD AND SWAP1 DUP2 PUSH2 0x1DFD JUMPI JUMPDEST POP PUSH2 0x1DE0 JUMPI JUMPDEST PUSH2 0x1DDA SWAP1 PUSH2 0x1FAC JUMP JUMPDEST DUP5 PUSH2 0x1D58 JUMP JUMPDEST SWAP6 PUSH2 0x1DF5 PUSH2 0x1DDA SWAP2 DUP8 DUP10 AND PUSH2 0x273 DUP3 DUP13 PUSH2 0x1FBB JUMP JUMPDEST SWAP7 SWAP1 POP PUSH2 0x1DD1 JUMP JUMPDEST SWAP1 POP PUSH1 0xD DUP6 MSTORE PUSH1 0x40 PUSH1 0x0 KECCAK256 SLOAD AND DUP11 PUSH2 0x1DCB JUMP JUMPDEST PUSH2 0x1D5D JUMP JUMPDEST POP DUP3 DUP8 LT PUSH2 0x1DAD JUMP JUMPDEST PUSH1 0x4 CALLDATALOAD SWAP1 PUSH1 0x1 PUSH1 0x1 PUSH1 0x40 SHL SUB DUP3 AND DUP3 SUB PUSH2 0x17E JUMPI JUMP JUMPDEST PUSH1 0x24 CALLDATALOAD SWAP1 PUSH1 0x1 PUSH1 0x1 PUSH1 0x40 SHL SUB DUP3 AND DUP3 SUB PUSH2 0x17E JUMPI JUMP JUMPDEST PUSH1 0x20 SWAP1 PUSH1 0x20 PUSH1 0x40 DUP2 DUP4 ADD SWAP3 DUP3 DUP2 MSTORE DUP6 MLOAD DUP1 SWAP5 MSTORE ADD SWAP4 ADD SWAP2 PUSH1 0x0 JUMPDEST DUP3 DUP2 LT PUSH2 0x1E72 JUMPI POP POP POP POP SWAP1 JUMP JUMPDEST DUP4 MLOAD PUSH1 0x1 PUSH1 0x1 PUSH1 0x40 SHL SUB AND DUP6 MSTORE SWAP4 DUP2 ADD SWAP4 SWAP3 DUP2 ADD SWAP3 PUSH1 0x1 ADD PUSH2 0x1E64 JUMP JUMPDEST PUSH1 0x4 CALLDATALOAD SWAP1 PUSH1 0x1 PUSH1 0x1 PUSH1 0xA0 SHL SUB DUP3 AND DUP3 SUB PUSH2 0x17E JUMPI JUMP JUMPDEST SWAP2 SWAP1 DUP3 MLOAD SWAP3 DUP4 DUP3 MSTORE PUSH1 0x0 JUMPDEST DUP5 DUP2 LT PUSH2 0x1ED1 JUMPI POP POP DUP3 PUSH1 0x0 PUSH1 0x20 DUP1 SWAP5 SWAP6 DUP5 ADD ADD MSTORE PUSH1 0x1F DUP1 NOT SWAP2 ADD AND ADD ADD SWAP1 JUMP JUMPDEST PUSH1 0x20 DUP2 DUP4 ADD DUP2 ADD MLOAD DUP5 DUP4 ADD DUP3 ADD MSTORE ADD PUSH2 0x1EB0 JUMP JUMPDEST SWAP2 DUP2 PUSH1 0x1F DUP5 ADD SLT ISZERO PUSH2 0x17E JUMPI DUP3 CALLDATALOAD SWAP2 PUSH1 0x1 PUSH1 0x1 PUSH1 0x40 SHL SUB DUP4 GT PUSH2 0x17E JUMPI PUSH1 0x20 DUP4 DUP2 DUP7 ADD SWAP6 ADD ADD GT PUSH2 0x17E JUMPI JUMP JUMPDEST SWAP2 DUP2 PUSH1 0x1F DUP5 ADD SLT ISZERO PUSH2 0x17E JUMPI DUP3 CALLDATALOAD SWAP2 PUSH1 0x1 PUSH1 0x1 PUSH1 0x40 SHL SUB DUP4 GT PUSH2 0x17E JUMPI PUSH1 0x20 DUP1 DUP6 ADD SWAP5 DUP5 PUSH1 0x5 SHL ADD ADD GT PUSH2 0x17E JUMPI JUMP JUMPDEST SWAP1 PUSH1 0x1F DUP1 NOT SWAP2 ADD AND DUP2 ADD SWAP1 DUP2 LT PUSH1 0x1 PUSH1 0x1 PUSH1 0x40 SHL SUB DUP3 GT OR PUSH2 0x8C0 JUMPI PUSH1 0x40 MSTORE JUMP JUMPDEST PUSH1 0x1 PUSH1 0x1 PUSH1 0x40 SHL SUB DUP2 GT PUSH2 0x8C0 JUMPI PUSH1 0x5 SHL PUSH1 0x20 ADD SWAP1 JUMP JUMPDEST SWAP1 PUSH2 0x1F84 DUP3 PUSH2 0x1F63 JUMP JUMPDEST PUSH2 0x1F91 PUSH1 0x40 MLOAD SWAP2 DUP3 PUSH2 0x1F42 JUMP JUMPDEST DUP3 DUP2 MSTORE DUP1 SWAP3 PUSH2 0x1FA2 PUSH1 0x1F NOT SWAP2 PUSH2 0x1F63 JUMP JUMPDEST ADD SWAP1 PUSH1 0x20 CALLDATASIZE SWAP2 ADD CALLDATACOPY JUMP JUMPDEST PUSH1 0x0 NOT DUP2 EQ PUSH2 0x15E JUMPI PUSH1 0x1 ADD SWAP1 JUMP JUMPDEST DUP1 MLOAD DUP3 LT ISZERO PUSH2 0x1FCF JUMPI PUSH1 0x20 SWAP2 PUSH1 0x5 SHL ADD ADD SWAP1 JUMP JUMPDEST PUSH4 0x4E487B71 PUSH1 0xE0 SHL PUSH1 0x0 MSTORE PUSH1 0x32 PUSH1 0x4 MSTORE PUSH1 0x24 PUSH1 0x0 REVERT JUMPDEST SWAP1 PUSH1 0x0 CALLER DUP2 MSTORE PUSH1 0x1 PUSH1 0x20 PUSH1 0x1 PUSH1 0x20 MSTORE PUSH1 0xFF SWAP5 PUSH1 0x40 SWAP2 PUSH1 0xFF PUSH1 0x40 DUP7 KECCAK256 SLOAD AND ISZERO PUSH2 0x3AD JUMPI PUSH1 0x3 SLOAD SWAP3 DUP5 PUSH1 0x1 PUSH1 0x1 PUSH1 0x40 SHL SUB DUP1 SWAP5 AND DUP6 DUP2 LT PUSH1 0x0 EQ PUSH2 0x210E JUMPI SWAP3 JUMPDEST PUSH2 0x202C DUP5 PUSH2 0x1F7A JUMP JUMPDEST SWAP10 DUP9 SWAP7 DUP8 DUP5 JUMPDEST PUSH2 0x2084 JUMPI JUMPDEST POP POP POP POP POP POP DUP3 LT PUSH2 0x2049 JUMPI POP POP POP POP JUMP JUMPDEST PUSH2 0x2052 DUP3 PUSH2 0x1F7A JUMP JUMPDEST SWAP4 JUMPDEST DUP3 DUP2 LT PUSH2 0x2064 JUMPI POP SWAP3 SWAP5 POP POP POP POP JUMP JUMPDEST DUP1 DUP3 PUSH2 0x2071 DUP7 SWAP4 DUP11 PUSH2 0x1FBB JUMP JUMPDEST MLOAD AND PUSH2 0x207D DUP3 DUP9 PUSH2 0x1FBB JUMP JUMPDEST MSTORE ADD PUSH2 0x2054 JUMP JUMPDEST DUP2 DUP2 LT DUP1 PUSH2 0x2105 JUMPI JUMPDEST ISZERO PUSH2 0x2100 JUMPI DUP1 DUP12 MSTORE PUSH1 0x13 DUP5 MSTORE DUP13 DUP7 DUP13 KECCAK256 SLOAD DUP1 DUP14 MSTORE PUSH1 0xD DUP7 MSTORE DUP13 DUP6 DUP10 DUP2 DUP2 DUP5 KECCAK256 SLOAD AND ISZERO SWAP3 DUP4 PUSH2 0x20EF JUMPI JUMPDEST POP POP POP PUSH2 0x20CF JUMPI JUMPDEST POP POP PUSH2 0x20C9 SWAP1 PUSH2 0x1FAC JUMP JUMPDEST DUP5 PUSH2 0x2032 JUMP JUMPDEST SWAP10 PUSH2 0x20E5 SWAP2 PUSH2 0x273 DUP3 DUP13 PUSH2 0x20C9 SWAP7 SWAP15 AND SWAP3 PUSH2 0x1FBB JUMP JUMPDEST SWAP9 SWAP1 POP DUP13 CODESIZE PUSH2 0x20BE JUMP JUMPDEST PUSH1 0xC DUP11 MSTORE KECCAK256 SLOAD AND SWAP1 POP DUP6 DUP10 DUP16 PUSH2 0x20B6 JUMP JUMPDEST PUSH2 0x2037 JUMP JUMPDEST POP DUP7 DUP10 LT PUSH2 0x208D JUMP JUMPDEST POP DUP5 SWAP3 PUSH2 0x2023 JUMP JUMPDEST SWAP1 PUSH1 0x1 DUP3 DUP2 SHR SWAP3 AND DUP1 ISZERO PUSH2 0x2146 JUMPI JUMPDEST PUSH1 0x20 DUP4 LT EQ PUSH2 0x2130 JUMPI JUMP JUMPDEST PUSH4 0x4E487B71 PUSH1 0xE0 SHL PUSH1 0x0 MSTORE PUSH1 0x22 PUSH1 0x4 MSTORE PUSH1 0x24 PUSH1 0x0 REVERT JUMPDEST SWAP2 PUSH1 0x7F AND SWAP2 PUSH2 0x2125 JUMP JUMPDEST DUP1 SLOAD PUSH1 0x0 SWAP4 SWAP3 PUSH2 0x215F DUP3 PUSH2 0x2116 JUMP JUMPDEST SWAP2 DUP3 DUP3 MSTORE PUSH1 0x20 SWAP4 PUSH1 0x1 SWAP2 PUSH1 0x1 DUP2 AND SWAP1 DUP2 PUSH1 0x0 EQ PUSH2 0x21C7 JUMPI POP PUSH1 0x1 EQ PUSH2 0x2186 JUMPI JUMPDEST POP POP POP POP POP JUMP JUMPDEST SWAP1 SWAP4 SWAP5 SWAP6 POP PUSH1 0x0 SWAP3 SWAP2 SWAP3 MSTORE DUP4 PUSH1 0x0 KECCAK256 SWAP3 DUP5 PUSH1 0x0 SWAP5 JUMPDEST DUP4 DUP7 LT PUSH2 0x21B3 JUMPI POP POP POP POP ADD ADD SWAP1 CODESIZE DUP1 DUP1 DUP1 DUP1 PUSH2 0x217F JUMP JUMPDEST DUP1 SLOAD DUP6 DUP8 ADD DUP4 ADD MSTORE SWAP5 ADD SWAP4 DUP6 SWAP1 DUP3 ADD PUSH2 0x219B JUMP JUMPDEST PUSH1 0xFF NOT AND DUP7 DUP6 ADD MSTORE POP POP POP SWAP1 ISZERO ISZERO PUSH1 0x5 SHL ADD ADD SWAP2 POP CODESIZE DUP1 DUP1 DUP1 DUP1 PUSH2 0x217F JUMP JUMPDEST SWAP2 SWAP1 DUP2 LT ISZERO PUSH2 0x1FCF JUMPI PUSH1 0x5 SHL DUP2 ADD CALLDATALOAD SWAP1 PUSH1 0x1E NOT DUP2 CALLDATASIZE SUB ADD DUP3 SLT ISZERO PUSH2 0x17E JUMPI ADD SWAP1 DUP2 CALLDATALOAD SWAP2 PUSH1 0x1 PUSH1 0x1 PUSH1 0x40 SHL SUB DUP4 GT PUSH2 0x17E JUMPI PUSH1 0x20 ADD DUP3 CALLDATASIZE SUB DUP2 SGT PUSH2 0x17E JUMPI SWAP2 SWAP1 JUMP JUMPDEST SWAP1 DUP1 PUSH1 0x20 SWAP4 SWAP3 DUP2 DUP5 MSTORE DUP5 DUP5 ADD CALLDATACOPY PUSH1 0x0 DUP3 DUP3 ADD DUP5 ADD MSTORE PUSH1 0x1F ADD PUSH1 0x1F NOT AND ADD ADD SWAP1 JUMP INVALID LOG2 PUSH5 0x6970667358 0x22 SLT KECCAK256 CALLER EQ PUSH26 0x4701B4247849FBC4A252CCE1FFE7BB5ED6B8F9203624D5BFBA24 DUP9 0xC2 DUP8 PUSH5 0x736F6C6343 STOP ADDMOD XOR STOP CALLER "},"methodIdentifiers":{"addAdmin(address)":"70480275","admins(address)":"429b62e5","approveApp(uint64)":"b2e63299","deactivateApp(uint64)":"b6b0d763","featureApp(uint64)":"e8a57a8b","featuredCount()":"2e440321","getAllApps(uint64)":"1c26644d","getApp(uint64)":"640ae968","getAppScreenshot(uint64,uint64)":"ceeaec8d","getAppsByCategory(string,uint64)":"b21040ed","getAppsByChain(uint64,uint64)":"f5253fcf","getAppsByDeveloper(address,uint64)":"bfe2f428","getFeaturedApps(uint64)":"c5394ac6","getOwner()":"893d20e8","getPendingApps(uint64)":"3ec774e6","getTotalApps()":"fc96c8a8","isAdmin(address)":"24d7806c","nextAppId()":"38226c2a","owner()":"8da5cb5b","pendingCount()":"ea70b4af","registerApp(string,string,string,string,string,uint64,bool,string,string[])":"81a6549c","rejectApp(uint64,string)":"a8e5787b","updateApp(uint64,string,string,string[])":"aeb0edb7"}}}}}